{"abi":[{"type":"function","name":"sendRawAction","inputs":[{"name":"data","type":"bytes","internalType":"bytes"}],"outputs":[],"stateMutability":"nonpayable"},{"type":"event","name":"RawAction","inputs":[{"name":"user","type":"address","indexed":true,"internalType":"address"},{"name":"data","type":"bytes","indexed":false,"internalType":"bytes"}],"anonymous":false}],"bytecode":{"object":"0x608060405234801561001057600080fd5b5061028a806100206000396000f3fe608060405234801561001057600080fd5b506004361061002b5760003560e01c806317938e1314610030575b600080fd5b61004a6004803603810190610045919061010b565b61004c565b005b60005b61019081101561006c578080610064906101cb565b91505061004f565b503373ffffffffffffffffffffffffffffffffffffffff167f8c7f585fb295f7eb1e6aeb8fba61b23a4fe60beda405f0045073b185c74412e383836040516100b592919061017d565b60405180910390a25050565b60008083601f8401126100d357600080fd5b8235905067ffffffffffffffff8111156100ec57600080fd5b60208301915083600182028301111561010457600080fd5b9250929050565b6000806020838503121561011e57600080fd5b600083013567ffffffffffffffff81111561013857600080fd5b610144858286016100c1565b92509250509250929050565b600061015c83856101a1565b93506101698385846101bc565b61017283610243565b840190509392505050565b60006020820190508181036000830152610198818486610150565b90509392505050565b600082825260208201905092915050565b6000819050919050565b82818337600083830152505050565b60006101d6826101b2565b91507fffffffffffffffffffffffffffffffffffffffffffffffffffffffffffffffff82141561020957610208610214565b5b600182019050919050565b7f4e487b7100000000000000000000000000000000000000000000000000000000600052601160045260246000fd5b6000601f19601f830116905091905056fea264697066735822122005d3eb306a89e473a518536ba32a28a9951eba143892258dd70d01b1b63ae42664736f6c63430008000033","linkReferences":{}},"methodIdentifiers":{"sendRawAction(bytes)":"17938e13"},"id":0}