{"abi":[{"type":"function","name":"sendRawAction","inputs":[{"name":"data","type":"bytes","internalType":"bytes"}],"outputs":[],"stateMutability":"nonpayable"},{"type":"event","name":"RawAction","inputs":[{"name":"user","type":"address","indexed":true,"internalType":"address"},{"name":"data","type":"bytes","indexed":false,"internalType":"bytes"}],"anonymous":false}],"bytecode":{"object":"0x608060405234801561001057600080fd5b506102b6806100206000396000f3fe608060405234801561001057600080fd5b506004361061002b5760003560e01c806317938e1314610030575b600080fd5b61004a60048036038101906100459190610130565b61004c565b005b60005b61019081101561006c578080610064906101b6565b91505061004f565b503373ffffffffffffffffffffffffffffffffffffffff167f8c7f585fb295f7eb1e6aeb8fba61b23a4fe60beda405f0045073b185c74412e383836040516100b592919061025c565b60405180910390a25050565b600080fd5b600080fd5b600080fd5b600080fd5b600080fd5b60008083601f8401126100f0576100ef6100cb565b5b8235905067ffffffffffffffff81111561010d5761010c6100d0565b5b602083019150836001820283011115610129576101286100d5565b5b9250929050565b60008060208385031215610147576101466100c1565b5b600083013567ffffffffffffffff811115610165576101646100c6565b5b610171858286016100da565b92509250509250929050565b7f4e487b7100000000000000000000000000000000000000000000000000000000600052601160045260246000fd5b6000819050919050565b60006101c1826101ac565b91507fffffffffffffffffffffffffffffffffffffffffffffffffffffffffffffffff82036101f3576101f261017d565b5b600182019050919050565b600082825260208201905092915050565b82818337600083830152505050565b6000601f19601f8301169050919050565b600061023b83856101fe565b935061024883858461020f565b6102518361021e565b840190509392505050565b6000602082019050818103600083015261027781848661022f565b9050939250505056fea264697066735822122021dd34d2d2f62b56c82736a685f70f72ee09845cef733011dcb6809b398ddba864736f6c634300080d0033","linkReferences":{}},"methodIdentifiers":{"sendRawAction(bytes)":"17938e13"},"id":0}