{"abi":[{"type":"function","name":"delegations","inputs":[{"name":"user","type":"address","internalType":"address"}],"outputs":[{"name":"","type":"tuple[]","internalType":"struct L1Read.Delegation[]","components":[{"name":"validator","type":"address","internalType":"address"},{"name":"amount","type":"uint64","internalType":"uint64"},{"name":"lockedUntilTimestamp","type":"uint64","internalType":"uint64"}]}],"stateMutability":"view"},{"type":"function","name":"delegatorSummary","inputs":[{"name":"user","type":"address","internalType":"address"}],"outputs":[{"name":"","type":"tuple","internalType":"struct L1Read.DelegatorSummary","components":[{"name":"delegated","type":"uint64","internalType":"uint64"},{"name":"undelegated","type":"uint64","internalType":"uint64"},{"name":"totalPendingWithdrawal","type":"uint64","internalType":"uint64"},{"name":"nPendingWithdrawals","type":"uint64","internalType":"uint64"}]}],"stateMutability":"view"},{"type":"function","name":"l1BlockNumber","inputs":[],"outputs":[{"name":"","type":"uint64","internalType":"uint64"}],"stateMutability":"view"},{"type":"function","name":"markPx","inputs":[{"name":"index","type":"uint32","internalType":"uint32"}],"outputs":[{"name":"","type":"uint64","internalType":"uint64"}],"stateMutability":"view"},{"type":"function","name":"oraclePx","inputs":[{"name":"index","type":"uint32","internalType":"uint32"}],"outputs":[{"name":"","type":"uint64","internalType":"uint64"}],"stateMutability":"view"},{"type":"function","name":"perpAssetInfo","inputs":[{"name":"perp","type":"uint32","internalType":"uint32"}],"outputs":[{"name":"","type":"tuple","internalType":"struct L1Read.PerpAssetInfo","components":[{"name":"coin","type":"string","internalType":"string"},{"name":"marginTableId","type":"uint32","internalType":"uint32"},{"name":"szDecimals","type":"uint8","internalType":"uint8"},{"name":"maxLeverage","type":"uint8","internalType":"uint8"},{"name":"onlyIsolated","type":"bool","internalType":"bool"}]}],"stateMutability":"view"},{"type":"function","name":"position","inputs":[{"name":"user","type":"address","internalType":"address"},{"name":"perp","type":"uint16","internalType":"uint16"}],"outputs":[{"name":"","type":"tuple","internalType":"struct L1Read.Position","components":[{"name":"szi","type":"int64","internalType":"int64"},{"name":"entryNtl","type":"uint64","internalType":"uint64"},{"name":"isolatedRawUsd","type":"int64","internalType":"int64"},{"name":"leverage","type":"uint32","internalType":"uint32"},{"name":"isIsolated","type":"bool","internalType":"bool"}]}],"stateMutability":"view"},{"type":"function","name":"spotBalance","inputs":[{"name":"user","type":"address","internalType":"address"},{"name":"token","type":"uint64","internalType":"uint64"}],"outputs":[{"name":"","type":"tuple","internalType":"struct L1Read.SpotBalance","components":[{"name":"total","type":"uint64","internalType":"uint64"},{"name":"hold","type":"uint64","internalType":"uint64"},{"name":"entryNtl","type":"uint64","internalType":"uint64"}]}],"stateMutability":"view"},{"type":"function","name":"spotInfo","inputs":[{"name":"spot","type":"uint32","internalType":"uint32"}],"outputs":[{"name":"","type":"tuple","internalType":"struct L1Read.SpotInfo","components":[{"name":"name","type":"string","internalType":"string"},{"name":"tokens","type":"uint64[2]","internalType":"uint64[2]"}]}],"stateMutability":"view"},{"type":"function","name":"spotPx","inputs":[{"name":"index","type":"uint32","internalType":"uint32"}],"outputs":[{"name":"","type":"uint64","internalType":"uint64"}],"stateMutability":"view"},{"type":"function","name":"tokenInfo","inputs":[{"name":"token","type":"uint32","internalType":"uint32"}],"outputs":[{"name":"","type":"tuple","internalType":"struct L1Read.TokenInfo","components":[{"name":"name","type":"string","internalType":"string"},{"name":"spots","type":"uint64[]","internalType":"uint64[]"},{"name":"deployerTradingFeeShare","type":"uint64","internalType":"uint64"},{"name":"deployer","type":"address","internalType":"address"},{"name":"evmContract","type":"address","internalType":"address"},{"name":"szDecimals","type":"uint8","internalType":"uint8"},{"name":"weiDecimals","type":"uint8","internalType":"uint8"},{"name":"evmExtraWeiDecimals","type":"int8","internalType":"int8"}]}],"stateMutability":"view"},{"type":"function","name":"tokenSupply","inputs":[{"name":"token","type":"uint32","internalType":"uint32"}],"outputs":[{"name":"","type":"tuple","internalType":"struct L1Read.TokenSupply","components":[{"name":"maxSupply","type":"uint64","internalType":"uint64"},{"name":"totalSupply","type":"uint64","internalType":"uint64"},{"name":"circulatingSupply","type":"uint64","internalType":"uint64"},{"name":"futureEmissions","type":"uint64","internalType":"uint64"},{"name":"nonCirculatingUserBalances","type":"tuple[]","internalType":"struct L1Read.UserBalance[]","components":[{"name":"user","type":"address","internalType":"address"},{"name":"balance","type":"uint64","internalType":"uint64"}]}]}],"stateMutability":"view"},{"type":"function","name":"userVaultEquity","inputs":[{"name":"user","type":"address","internalType":"address"},{"name":"vault","type":"address","internalType":"address"}],"outputs":[{"name":"","type":"tuple","internalType":"struct L1Read.UserVaultEquity","components":[{"name":"equity","type":"uint64","internalType":"uint64"},{"name":"lockedUntilTimestamp","type":"uint64","internalType":"uint64"}]}],"stateMutability":"view"},{"type":"function","name":"withdrawable","inputs":[{"name":"user","type":"address","internalType":"address"}],"outputs":[{"name":"","type":"tuple","internalType":"struct L1Read.Withdrawable","components":[{"name":"withdrawable","type":"uint64","internalType":"uint64"}]}],"stateMutability":"view"}],"bytecode":{"object":"0x608060405234801561001057600080fd5b506133f9806100206000396000f3fe608060405234801561001057600080fd5b50600436106100ea5760003560e01c8063b6dff0b51161008c578063c0f0f5ef11610066578063c0f0f5ef146102bd578063c8eec8c6146102ed578063ce513b6f1461031d578063ee1b5af11461034d576100ea565b8063b6dff0b51461022d578063be06f7ac1461025d578063bffe34861461028d576100ea565b806368fb1109116100c857806368fb11091461016d57806389cf7c891461019d57806390702759146101cd578063a69610d1146101fd576100ea565b8063298c9005146100ef57806337f980a51461010d5780634162cd321461013d575b600080fd5b6100f761037d565b6040516101049190611384565b60405180910390f35b61012760048036038101906101229190611411565b610461565b60405161013491906114a2565b60405180910390f35b610157600480360381019061015291906114f9565b610559565b604051610164919061167b565b60405180910390f35b610187600480360381019061018291906114f9565b610651565b604051610194919061182e565b60405180910390f35b6101b760048036038101906101b2919061188a565b610749565b6040516101c4919061194e565b60405180910390f35b6101e760048036038101906101e291906114f9565b610844565b6040516101f49190611384565b60405180910390f35b61021760048036038101906102129190611995565b610935565b6040516102249190611a17565b60405180910390f35b610247600480360381019061024291906114f9565b610a30565b6040516102549190611af3565b60405180910390f35b610277600480360381019061027291906114f9565b610b28565b6040516102849190611c69565b60405180910390f35b6102a760048036038101906102a29190611411565b610c20565b6040516102b49190611d7c565b60405180910390f35b6102d760048036038101906102d291906114f9565b610d12565b6040516102e49190611384565b60405180910390f35b610307600480360381019061030291906114f9565b610e03565b6040516103149190611384565b60405180910390f35b61033760048036038101906103329190611411565b610ef4565b6040516103449190611dba565b60405180910390f35b61036760048036038101906103629190611dd5565b610fec565b6040516103749190611e44565b60405180910390f35b600080606061080973ffffffffffffffffffffffffffffffffffffffff166040516020016040516020818303038152906040526040516103bd9190611ea6565b600060405180830381855afa9150503d80600081146103f8576040519150601f19603f3d011682016040523d82523d6000602084013e6103fd565b606091505b50809250819350505081610446576040517f08c379a000000000000000000000000000000000000000000000000000000000815260040161043d90611f40565b60405180910390fd5b8080602001905181019061045a9190611f75565b9250505090565b6104696110e7565b6000606061080573ffffffffffffffffffffffffffffffffffffffff16846040516020016104979190611fb1565b6040516020818303038152906040526040516104b39190611ea6565b600060405180830381855afa9150503d80600081146104ee576040519150601f19603f3d011682016040523d82523d6000602084013e6104f3565b606091505b5080925081935050508161053c576040517f08c379a00000000000000000000000000000000000000000000000000000000081526004016105339061203e565b60405180910390fd5b80806020019051810190610550919061215b565b92505050919050565b610561611137565b6000606061080a73ffffffffffffffffffffffffffffffffffffffff168460405160200161058f9190612197565b6040516020818303038152906040526040516105ab9190611ea6565b600060405180830381855afa9150503d80600081146105e6576040519150601f19603f3d011682016040523d82523d6000602084013e6105eb565b606091505b50809250819350505081610634576040517f08c379a000000000000000000000000000000000000000000000000000000000815260040161062b90612224565b60405180910390fd5b808060200190518101906106489190612404565b92505050919050565b610659611174565b6000606061080c73ffffffffffffffffffffffffffffffffffffffff16846040516020016106879190612197565b6040516020818303038152906040526040516106a39190611ea6565b600060405180830381855afa9150503d80600081146106de576040519150601f19603f3d011682016040523d82523d6000602084013e6106e3565b606091505b5080925081935050508161072c576040517f08c379a000000000000000000000000000000000000000000000000000000000815260040161072390612499565b60405180910390fd5b8080602001905181019061074091906126c4565b92505050919050565b6107516111f7565b6000606061080073ffffffffffffffffffffffffffffffffffffffff16858560405160200161078192919061271c565b60405160208183030381529060405260405161079d9190611ea6565b600060405180830381855afa9150503d80600081146107d8576040519150601f19603f3d011682016040523d82523d6000602084013e6107dd565b606091505b50809250819350505081610826576040517f08c379a000000000000000000000000000000000000000000000000000000000815260040161081d90612791565b60405180910390fd5b8080602001905181019061083a9190612869565b9250505092915050565b600080606061080873ffffffffffffffffffffffffffffffffffffffff16846040516020016108739190612197565b60405160208183030381529060405260405161088f9190611ea6565b600060405180830381855afa9150503d80600081146108ca576040519150601f19603f3d011682016040523d82523d6000602084013e6108cf565b606091505b50809250819350505081610918576040517f08c379a000000000000000000000000000000000000000000000000000000000815260040161090f906128e2565b60405180910390fd5b8080602001905181019061092c9190611f75565b92505050919050565b61093d61123e565b6000606061080173ffffffffffffffffffffffffffffffffffffffff16858560405160200161096d929190612902565b6040516020818303038152906040526040516109899190611ea6565b600060405180830381855afa9150503d80600081146109c4576040519150601f19603f3d011682016040523d82523d6000602084013e6109c9565b606091505b50809250819350505081610a12576040517f08c379a0000000000000000000000000000000000000000000000000000000008152600401610a099061299d565b60405180910390fd5b80806020019051810190610a269190612a21565b9250505092915050565b610a3861127d565b6000606061080b73ffffffffffffffffffffffffffffffffffffffff1684604051602001610a669190612197565b604051602081830303815290604052604051610a829190611ea6565b600060405180830381855afa9150503d8060008114610abd576040519150601f19603f3d011682016040523d82523d6000602084013e610ac2565b606091505b50809250819350505081610b0b576040517f08c379a0000000000000000000000000000000000000000000000000000000008152600401610b0290612a9a565b60405180910390fd5b80806020019051810190610b1f9190612bd7565b92505050919050565b610b3061129d565b6000606061080d73ffffffffffffffffffffffffffffffffffffffff1684604051602001610b5e9190612197565b604051602081830303815290604052604051610b7a9190611ea6565b600060405180830381855afa9150503d8060008114610bb5576040519150601f19603f3d011682016040523d82523d6000602084013e610bba565b606091505b50809250819350505081610c03576040517f08c379a0000000000000000000000000000000000000000000000000000000008152600401610bfa90612c92565b60405180910390fd5b80806020019051810190610c179190612e6d565b92505050919050565b60606000606061080473ffffffffffffffffffffffffffffffffffffffff1684604051602001610c509190611fb1565b604051602081830303815290604052604051610c6c9190611ea6565b600060405180830381855afa9150503d8060008114610ca7576040519150601f19603f3d011682016040523d82523d6000602084013e610cac565b606091505b50809250819350505081610cf5576040517f08c379a0000000000000000000000000000000000000000000000000000000008152600401610cec90612f28565b60405180910390fd5b80806020019051810190610d09919061306f565b92505050919050565b600080606061080773ffffffffffffffffffffffffffffffffffffffff1684604051602001610d419190612197565b604051602081830303815290604052604051610d5d9190611ea6565b600060405180830381855afa9150503d8060008114610d98576040519150601f19603f3d011682016040523d82523d6000602084013e610d9d565b606091505b50809250819350505081610de6576040517f08c379a0000000000000000000000000000000000000000000000000000000008152600401610ddd90613104565b60405180910390fd5b80806020019051810190610dfa9190611f75565b92505050919050565b600080606061080673ffffffffffffffffffffffffffffffffffffffff1684604051602001610e329190612197565b604051602081830303815290604052604051610e4e9190611ea6565b600060405180830381855afa9150503d8060008114610e89576040519150601f19603f3d011682016040523d82523d6000602084013e610e8e565b606091505b50809250819350505081610ed7576040517f08c379a0000000000000000000000000000000000000000000000000000000008152600401610ece90613170565b60405180910390fd5b80806020019051810190610eeb9190611f75565b92505050919050565b610efc6112f4565b6000606061080373ffffffffffffffffffffffffffffffffffffffff1684604051602001610f2a9190611fb1565b604051602081830303815290604052604051610f469190611ea6565b600060405180830381855afa9150503d8060008114610f81576040519150601f19603f3d011682016040523d82523d6000602084013e610f86565b606091505b50809250819350505081610fcf576040517f08c379a0000000000000000000000000000000000000000000000000000000008152600401610fc690613202565b60405180910390fd5b80806020019051810190610fe3919061325e565b92505050919050565b610ff4611311565b6000606061080273ffffffffffffffffffffffffffffffffffffffff16858560405160200161102492919061328b565b6040516020818303038152906040526040516110409190611ea6565b600060405180830381855afa9150503d806000811461107b576040519150601f19603f3d011682016040523d82523d6000602084013e611080565b606091505b508092508193505050816110c9576040517f08c379a00000000000000000000000000000000000000000000000000000000081526004016110c090613326565b60405180910390fd5b808060200190518101906110dd9190613396565b9250505092915050565b6040518060800160405280600067ffffffffffffffff168152602001600067ffffffffffffffff168152602001600067ffffffffffffffff168152602001600067ffffffffffffffff1681525090565b6040518060a0016040528060608152602001600063ffffffff168152602001600060ff168152602001600060ff1681526020016000151581525090565b6040518061010001604052806060815260200160608152602001600067ffffffffffffffff168152602001600073ffffffffffffffffffffffffffffffffffffffff168152602001600073ffffffffffffffffffffffffffffffffffffffff168152602001600060ff168152602001600060ff1681526020016000800b81525090565b6040518060a00160405280600060070b8152602001600067ffffffffffffffff168152602001600060070b8152602001600063ffffffff1681526020016000151581525090565b6040518060600160405280600067ffffffffffffffff168152602001600067ffffffffffffffff168152602001600067ffffffffffffffff1681525090565b60405180604001604052806060815260200161129761133f565b81525090565b6040518060a00160405280600067ffffffffffffffff168152602001600067ffffffffffffffff168152602001600067ffffffffffffffff168152602001600067ffffffffffffffff168152602001606081525090565b6040518060200160405280600067ffffffffffffffff1681525090565b6040518060400160405280600067ffffffffffffffff168152602001600067ffffffffffffffff1681525090565b6040518060400160405280600290602082028036833780820191505090505090565b600067ffffffffffffffff82169050919050565b61137e81611361565b82525050565b60006020820190506113996000830184611375565b92915050565b6000604051905090565b600080fd5b600080fd5b600073ffffffffffffffffffffffffffffffffffffffff82169050919050565b60006113de826113b3565b9050919050565b6113ee816113d3565b81146113f957600080fd5b50565b60008135905061140b816113e5565b92915050565b600060208284031215611427576114266113a9565b5b6000611435848285016113fc565b91505092915050565b61144781611361565b82525050565b608082016000820151611463600085018261143e565b506020820151611476602085018261143e565b506040820151611489604085018261143e565b50606082015161149c606085018261143e565b50505050565b60006080820190506114b7600083018461144d565b92915050565b600063ffffffff82169050919050565b6114d6816114bd565b81146114e157600080fd5b50565b6000813590506114f3816114cd565b92915050565b60006020828403121561150f5761150e6113a9565b5b600061151d848285016114e4565b91505092915050565b600081519050919050565b600082825260208201905092915050565b60005b83811015611560578082015181840152602081019050611545565b8381111561156f576000848401525b50505050565b6000601f19601f8301169050919050565b600061159182611526565b61159b8185611531565b93506115ab818560208601611542565b6115b481611575565b840191505092915050565b6115c8816114bd565b82525050565b600060ff82169050919050565b6115e4816115ce565b82525050565b60008115159050919050565b6115ff816115ea565b82525050565b600060a08301600083015184820360008601526116228282611586565b915050602083015161163760208601826115bf565b50604083015161164a60408601826115db565b50606083015161165d60608601826115db565b50608083015161167060808601826115f6565b508091505092915050565b600060208201905081810360008301526116958184611605565b905092915050565b600081519050919050565b600082825260208201905092915050565b6000819050602082019050919050565b60006116d5838361143e565b60208301905092915050565b6000602082019050919050565b60006116f98261169d565b61170381856116a8565b935061170e836116b9565b8060005b8381101561173f57815161172688826116c9565b9750611731836116e1565b925050600181019050611712565b5085935050505092915050565b611755816113d3565b82525050565b60008160000b9050919050565b6117718161175b565b82525050565b60006101008301600083015184820360008601526117958282611586565b915050602083015184820360208601526117af82826116ee565b91505060408301516117c4604086018261143e565b5060608301516117d7606086018261174c565b5060808301516117ea608086018261174c565b5060a08301516117fd60a08601826115db565b5060c083015161181060c08601826115db565b5060e083015161182360e0860182611768565b508091505092915050565b600060208201905081810360008301526118488184611777565b905092915050565b600061ffff82169050919050565b61186781611850565b811461187257600080fd5b50565b6000813590506118848161185e565b92915050565b600080604083850312156118a1576118a06113a9565b5b60006118af858286016113fc565b92505060206118c085828601611875565b9150509250929050565b60008160070b9050919050565b6118e0816118ca565b82525050565b60a0820160008201516118fc60008501826118d7565b50602082015161190f602085018261143e565b50604082015161192260408501826118d7565b50606082015161193560608501826115bf565b50608082015161194860808501826115f6565b50505050565b600060a08201905061196360008301846118e6565b92915050565b61197281611361565b811461197d57600080fd5b50565b60008135905061198f81611969565b92915050565b600080604083850312156119ac576119ab6113a9565b5b60006119ba858286016113fc565b92505060206119cb85828601611980565b9150509250929050565b6060820160008201516119eb600085018261143e565b5060208201516119fe602085018261143e565b506040820151611a11604085018261143e565b50505050565b6000606082019050611a2c60008301846119d5565b92915050565b600060029050919050565b600081905092915050565b6000819050919050565b6000602082019050919050565b611a6881611a32565b611a728184611a3d565b9250611a7d82611a48565b8060005b83811015611aae578151611a9587826116c9565b9650611aa083611a52565b925050600181019050611a81565b505050505050565b60006060830160008301518482036000860152611ad38282611586565b9150506020830151611ae86020860182611a5f565b508091505092915050565b60006020820190508181036000830152611b0d8184611ab6565b905092915050565b600081519050919050565b600082825260208201905092915050565b6000819050602082019050919050565b604082016000820151611b57600085018261174c565b506020820151611b6a602085018261143e565b50505050565b6000611b7c8383611b41565b60408301905092915050565b6000602082019050919050565b6000611ba082611b15565b611baa8185611b20565b9350611bb583611b31565b8060005b83811015611be6578151611bcd8882611b70565b9750611bd883611b88565b925050600181019050611bb9565b5085935050505092915050565b600060a083016000830151611c0b600086018261143e565b506020830151611c1e602086018261143e565b506040830151611c31604086018261143e565b506060830151611c44606086018261143e565b5060808301518482036080860152611c5c8282611b95565b9150508091505092915050565b60006020820190508181036000830152611c838184611bf3565b905092915050565b600081519050919050565b600082825260208201905092915050565b6000819050602082019050919050565b606082016000820151611ccd600085018261174c565b506020820151611ce0602085018261143e565b506040820151611cf3604085018261143e565b50505050565b6000611d058383611cb7565b60608301905092915050565b6000602082019050919050565b6000611d2982611c8b565b611d338185611c96565b9350611d3e83611ca7565b8060005b83811015611d6f578151611d568882611cf9565b9750611d6183611d11565b925050600181019050611d42565b5085935050505092915050565b60006020820190508181036000830152611d968184611d1e565b905092915050565b602082016000820151611db4600085018261143e565b50505050565b6000602082019050611dcf6000830184611d9e565b92915050565b60008060408385031215611dec57611deb6113a9565b5b6000611dfa858286016113fc565b9250506020611e0b858286016113fc565b9150509250929050565b604082016000820151611e2b600085018261143e565b506020820151611e3e602085018261143e565b50505050565b6000604082019050611e596000830184611e15565b92915050565b600081519050919050565b600081905092915050565b6000611e8082611e5f565b611e8a8185611e6a565b9350611e9a818560208601611542565b80840191505092915050565b6000611eb28284611e75565b915081905092915050565b600082825260208201905092915050565b7f4c31426c6f636b4e756d62657220707265636f6d70696c652063616c6c20666160008201527f696c656400000000000000000000000000000000000000000000000000000000602082015250565b6000611f2a602483611ebd565b9150611f3582611ece565b604082019050919050565b60006020820190508181036000830152611f5981611f1d565b9050919050565b600081519050611f6f81611969565b92915050565b600060208284031215611f8b57611f8a6113a9565b5b6000611f9984828501611f60565b91505092915050565b611fab816113d3565b82525050565b6000602082019050611fc66000830184611fa2565b92915050565b7f44656c656761746f727953756d6d61727920707265636f6d70696c652063616c60008201527f6c206661696c6564000000000000000000000000000000000000000000000000602082015250565b6000612028602883611ebd565b915061203382611fcc565b604082019050919050565b600060208201905081810360008301526120578161201b565b9050919050565b600080fd5b7f4e487b7100000000000000000000000000000000000000000000000000000000600052604160045260246000fd5b61209b82611575565b810181811067ffffffffffffffff821117156120ba576120b9612063565b5b80604052505050565b60006120cd61139f565b90506120d98282612092565b919050565b600080fd5b6000608082840312156120f9576120f861205e565b5b61210360806120c3565b9050600061211384828501611f60565b600083015250602061212784828501611f60565b602083015250604061213b84828501611f60565b604083015250606061214f84828501611f60565b60608301525092915050565b600060808284031215612171576121706113a9565b5b600061217f848285016120e3565b91505092915050565b612191816114bd565b82525050565b60006020820190506121ac6000830184612188565b92915050565b7f506572704173736574496e666f20707265636f6d70696c652063616c6c20666160008201527f696c656400000000000000000000000000000000000000000000000000000000602082015250565b600061220e602483611ebd565b9150612219826121b2565b604082019050919050565b6000602082019050818103600083015261223d81612201565b9050919050565b600080fd5b600080fd5b600067ffffffffffffffff82111561226957612268612063565b5b61227282611575565b9050602081019050919050565b600061229261228d8461224e565b6120c3565b9050828152602081018484840111156122ae576122ad612249565b5b6122b9848285611542565b509392505050565b600082601f8301126122d6576122d5612244565b5b81516122e684826020860161227f565b91505092915050565b6000815190506122fe816114cd565b92915050565b61230d816115ce565b811461231857600080fd5b50565b60008151905061232a81612304565b92915050565b612339816115ea565b811461234457600080fd5b50565b60008151905061235681612330565b92915050565b600060a082840312156123725761237161205e565b5b61237c60a06120c3565b9050600082015167ffffffffffffffff81111561239c5761239b6120de565b5b6123a8848285016122c1565b60008301525060206123bc848285016122ef565b60208301525060406123d08482850161231b565b60408301525060606123e48482850161231b565b60608301525060806123f884828501612347565b60808301525092915050565b60006020828403121561241a576124196113a9565b5b600082015167ffffffffffffffff811115612438576124376113ae565b5b6124448482850161235c565b91505092915050565b7f546f6b656e496e666f20707265636f6d70696c652063616c6c206661696c6564600082015250565b6000612483602083611ebd565b915061248e8261244d565b602082019050919050565b600060208201905081810360008301526124b281612476565b9050919050565b600067ffffffffffffffff8211156124d4576124d3612063565b5b602082029050602081019050919050565b600080fd5b60006124fd6124f8846124b9565b6120c3565b905080838252602082019050602084028301858111156125205761251f6124e5565b5b835b8181101561254957806125358882611f60565b845260208401935050602081019050612522565b5050509392505050565b600082601f83011261256857612567612244565b5b81516125788482602086016124ea565b91505092915050565b600081519050612590816113e5565b92915050565b61259f8161175b565b81146125aa57600080fd5b50565b6000815190506125bc81612596565b92915050565b600061010082840312156125d9576125d861205e565b5b6125e46101006120c3565b9050600082015167ffffffffffffffff811115612604576126036120de565b5b612610848285016122c1565b600083015250602082015167ffffffffffffffff811115612634576126336120de565b5b61264084828501612553565b602083015250604061265484828501611f60565b604083015250606061266884828501612581565b606083015250608061267c84828501612581565b60808301525060a06126908482850161231b565b60a08301525060c06126a48482850161231b565b60c08301525060e06126b8848285016125ad565b60e08301525092915050565b6000602082840312156126da576126d96113a9565b5b600082015167ffffffffffffffff8111156126f8576126f76113ae565b5b612704848285016125c2565b91505092915050565b61271681611850565b82525050565b60006040820190506127316000830185611fa2565b61273e602083018461270d565b9392505050565b7f506f736974696f6e20707265636f6d70696c652063616c6c206661696c656400600082015250565b600061277b601f83611ebd565b915061278682612745565b602082019050919050565b600060208201905081810360008301526127aa8161276e565b9050919050565b6127ba816118ca565b81146127c557600080fd5b50565b6000815190506127d7816127b1565b92915050565b600060a082840312156127f3576127f261205e565b5b6127fd60a06120c3565b9050600061280d848285016127c8565b600083015250602061282184828501611f60565b6020830152506040612835848285016127c8565b6040830152506060612849848285016122ef565b606083015250608061285d84828501612347565b60808301525092915050565b600060a0828403121561287f5761287e6113a9565b5b600061288d848285016127dd565b91505092915050565b7f53706f74507820707265636f6d70696c652063616c6c206661696c6564000000600082015250565b60006128cc601d83611ebd565b91506128d782612896565b602082019050919050565b600060208201905081810360008301526128fb816128bf565b9050919050565b60006040820190506129176000830185611fa2565b6129246020830184611375565b9392505050565b7f53706f7442616c616e636520707265636f6d70696c652063616c6c206661696c60008201527f6564000000000000000000000000000000000000000000000000000000000000602082015250565b6000612987602283611ebd565b91506129928261292b565b604082019050919050565b600060208201905081810360008301526129b68161297a565b9050919050565b6000606082840312156129d3576129d261205e565b5b6129dd60606120c3565b905060006129ed84828501611f60565b6000830152506020612a0184828501611f60565b6020830152506040612a1584828501611f60565b60408301525092915050565b600060608284031215612a3757612a366113a9565b5b6000612a45848285016129bd565b91505092915050565b7f53706f74496e666f20707265636f6d70696c652063616c6c206661696c656400600082015250565b6000612a84601f83611ebd565b9150612a8f82612a4e565b602082019050919050565b60006020820190508181036000830152612ab381612a77565b9050919050565b600067ffffffffffffffff821115612ad557612ad4612063565b5b602082029050919050565b6000612af3612aee84612aba565b6120c3565b90508060208402830185811115612b0d57612b0c6124e5565b5b835b81811015612b365780612b228882611f60565b845260208401935050602081019050612b0f565b5050509392505050565b600082601f830112612b5557612b54612244565b5b6002612b62848285612ae0565b91505092915050565b600060608284031215612b8157612b8061205e565b5b612b8b60406120c3565b9050600082015167ffffffffffffffff811115612bab57612baa6120de565b5b612bb7848285016122c1565b6000830152506020612bcb84828501612b40565b60208301525092915050565b600060208284031215612bed57612bec6113a9565b5b600082015167ffffffffffffffff811115612c0b57612c0a6113ae565b5b612c1784828501612b6b565b91505092915050565b7f546f6b656e537570706c7920707265636f6d70696c652063616c6c206661696c60008201527f6564000000000000000000000000000000000000000000000000000000000000602082015250565b6000612c7c602283611ebd565b9150612c8782612c20565b604082019050919050565b60006020820190508181036000830152612cab81612c6f565b9050919050565b600067ffffffffffffffff821115612ccd57612ccc612063565b5b602082029050602081019050919050565b600060408284031215612cf457612cf361205e565b5b612cfe60406120c3565b90506000612d0e84828501612581565b6000830152506020612d2284828501611f60565b60208301525092915050565b6000612d41612d3c84612cb2565b6120c3565b90508083825260208201905060408402830185811115612d6457612d636124e5565b5b835b81811015612d8d5780612d798882612cde565b845260208401935050604081019050612d66565b5050509392505050565b600082601f830112612dac57612dab612244565b5b8151612dbc848260208601612d2e565b91505092915050565b600060a08284031215612ddb57612dda61205e565b5b612de560a06120c3565b90506000612df584828501611f60565b6000830152506020612e0984828501611f60565b6020830152506040612e1d84828501611f60565b6040830152506060612e3184828501611f60565b606083015250608082015167ffffffffffffffff811115612e5557612e546120de565b5b612e6184828501612d97565b60808301525092915050565b600060208284031215612e8357612e826113a9565b5b600082015167ffffffffffffffff811115612ea157612ea06113ae565b5b612ead84828501612dc5565b91505092915050565b7f44656c65676174696f6e7320707265636f6d70696c652063616c6c206661696c60008201527f6564000000000000000000000000000000000000000000000000000000000000602082015250565b6000612f12602283611ebd565b9150612f1d82612eb6565b604082019050919050565b60006020820190508181036000830152612f4181612f05565b9050919050565b600067ffffffffffffffff821115612f6357612f62612063565b5b602082029050602081019050919050565b600060608284031215612f8a57612f8961205e565b5b612f9460606120c3565b90506000612fa484828501612581565b6000830152506020612fb884828501611f60565b6020830152506040612fcc84828501611f60565b60408301525092915050565b6000612feb612fe684612f48565b6120c3565b9050808382526020820190506060840283018581111561300e5761300d6124e5565b5b835b8181101561303757806130238882612f74565b845260208401935050606081019050613010565b5050509392505050565b600082601f83011261305657613055612244565b5b8151613066848260208601612fd8565b91505092915050565b600060208284031215613085576130846113a9565b5b600082015167ffffffffffffffff8111156130a3576130a26113ae565b5b6130af84828501613041565b91505092915050565b7f4f7261636c65507820707265636f6d70696c652063616c6c206661696c656400600082015250565b60006130ee601f83611ebd565b91506130f9826130b8565b602082019050919050565b6000602082019050818103600083015261311d816130e1565b9050919050565b7f4d61726b507820707265636f6d70696c652063616c6c206661696c6564000000600082015250565b600061315a601d83611ebd565b915061316582613124565b602082019050919050565b600060208201905081810360008301526131898161314d565b9050919050565b7f576974686472617761626c6520707265636f6d70696c652063616c6c2066616960008201527f6c65640000000000000000000000000000000000000000000000000000000000602082015250565b60006131ec602383611ebd565b91506131f782613190565b604082019050919050565b6000602082019050818103600083015261321b816131df565b9050919050565b6000602082840312156132385761323761205e565b5b61324260206120c3565b9050600061325284828501611f60565b60008301525092915050565b600060208284031215613274576132736113a9565b5b600061328284828501613222565b91505092915050565b60006040820190506132a06000830185611fa2565b6132ad6020830184611fa2565b9392505050565b7f5661756c7445717569747920707265636f6d70696c652063616c6c206661696c60008201527f6564000000000000000000000000000000000000000000000000000000000000602082015250565b6000613310602283611ebd565b915061331b826132b4565b604082019050919050565b6000602082019050818103600083015261333f81613303565b9050919050565b60006040828403121561335c5761335b61205e565b5b61336660406120c3565b9050600061337684828501611f60565b600083015250602061338a84828501611f60565b60208301525092915050565b6000604082840312156133ac576133ab6113a9565b5b60006133ba84828501613346565b9150509291505056fea26469706673582212203019258e10837962560b9eb19efa45622b2a8f03224c4357a7dad5c06e90e00d64736f6c634300080d0033","linkReferences":{}},"methodIdentifiers":{"delegations(address)":"bffe3486","delegatorSummary(address)":"37f980a5","l1BlockNumber()":"298c9005","markPx(uint32)":"c8eec8c6","oraclePx(uint32)":"c0f0f5ef","perpAssetInfo(uint32)":"4162cd32","position(address,uint16)":"89cf7c89","spotBalance(address,uint64)":"a69610d1","spotInfo(uint32)":"b6dff0b5","spotPx(uint32)":"90702759","tokenInfo(uint32)":"68fb1109","tokenSupply(uint32)":"be06f7ac","userVaultEquity(address,address)":"ee1b5af1","withdrawable(address)":"ce513b6f"},"id":1}