{"abi":[{"type":"function","name":"delegations","inputs":[{"name":"user","type":"address","internalType":"address"}],"outputs":[{"name":"","type":"tuple[]","internalType":"struct L1Read.Delegation[]","components":[{"name":"validator","type":"address","internalType":"address"},{"name":"amount","type":"uint64","internalType":"uint64"},{"name":"lockedUntilTimestamp","type":"uint64","internalType":"uint64"}]}],"stateMutability":"view"},{"type":"function","name":"delegatorSummary","inputs":[{"name":"user","type":"address","internalType":"address"}],"outputs":[{"name":"","type":"tuple","internalType":"struct L1Read.DelegatorSummary","components":[{"name":"delegated","type":"uint64","internalType":"uint64"},{"name":"undelegated","type":"uint64","internalType":"uint64"},{"name":"totalPendingWithdrawal","type":"uint64","internalType":"uint64"},{"name":"nPendingWithdrawals","type":"uint64","internalType":"uint64"}]}],"stateMutability":"view"},{"type":"function","name":"l1BlockNumber","inputs":[],"outputs":[{"name":"","type":"uint64","internalType":"uint64"}],"stateMutability":"view"},{"type":"function","name":"markPx","inputs":[{"name":"index","type":"uint32","internalType":"uint32"}],"outputs":[{"name":"","type":"uint64","internalType":"uint64"}],"stateMutability":"view"},{"type":"function","name":"oraclePx","inputs":[{"name":"index","type":"uint32","internalType":"uint32"}],"outputs":[{"name":"","type":"uint64","internalType":"uint64"}],"stateMutability":"view"},{"type":"function","name":"perpAssetInfo","inputs":[{"name":"perp","type":"uint32","internalType":"uint32"}],"outputs":[{"name":"","type":"tuple","internalType":"struct L1Read.PerpAssetInfo","components":[{"name":"coin","type":"string","internalType":"string"},{"name":"marginTableId","type":"uint32","internalType":"uint32"},{"name":"szDecimals","type":"uint8","internalType":"uint8"},{"name":"maxLeverage","type":"uint8","internalType":"uint8"},{"name":"onlyIsolated","type":"bool","internalType":"bool"}]}],"stateMutability":"view"},{"type":"function","name":"position","inputs":[{"name":"user","type":"address","internalType":"address"},{"name":"perp","type":"uint16","internalType":"uint16"}],"outputs":[{"name":"","type":"tuple","internalType":"struct L1Read.Position","components":[{"name":"szi","type":"int64","internalType":"int64"},{"name":"entryNtl","type":"uint64","internalType":"uint64"},{"name":"isolatedRawUsd","type":"int64","internalType":"int64"},{"name":"leverage","type":"uint32","internalType":"uint32"},{"name":"isIsolated","type":"bool","internalType":"bool"}]}],"stateMutability":"view"},{"type":"function","name":"spotBalance","inputs":[{"name":"user","type":"address","internalType":"address"},{"name":"token","type":"uint64","internalType":"uint64"}],"outputs":[{"name":"","type":"tuple","internalType":"struct L1Read.SpotBalance","components":[{"name":"total","type":"uint64","internalType":"uint64"},{"name":"hold","type":"uint64","internalType":"uint64"},{"name":"entryNtl","type":"uint64","internalType":"uint64"}]}],"stateMutability":"view"},{"type":"function","name":"spotInfo","inputs":[{"name":"spot","type":"uint32","internalType":"uint32"}],"outputs":[{"name":"","type":"tuple","internalType":"struct L1Read.SpotInfo","components":[{"name":"name","type":"string","internalType":"string"},{"name":"tokens","type":"uint64[2]","internalType":"uint64[2]"}]}],"stateMutability":"view"},{"type":"function","name":"spotPx","inputs":[{"name":"index","type":"uint32","internalType":"uint32"}],"outputs":[{"name":"","type":"uint64","internalType":"uint64"}],"stateMutability":"view"},{"type":"function","name":"tokenInfo","inputs":[{"name":"token","type":"uint32","internalType":"uint32"}],"outputs":[{"name":"","type":"tuple","internalType":"struct L1Read.TokenInfo","components":[{"name":"name","type":"string","internalType":"string"},{"name":"spots","type":"uint64[]","internalType":"uint64[]"},{"name":"deployerTradingFeeShare","type":"uint64","internalType":"uint64"},{"name":"deployer","type":"address","internalType":"address"},{"name":"evmContract","type":"address","internalType":"address"},{"name":"szDecimals","type":"uint8","internalType":"uint8"},{"name":"weiDecimals","type":"uint8","internalType":"uint8"},{"name":"evmExtraWeiDecimals","type":"int8","internalType":"int8"}]}],"stateMutability":"view"},{"type":"function","name":"tokenSupply","inputs":[{"name":"token","type":"uint32","internalType":"uint32"}],"outputs":[{"name":"","type":"tuple","internalType":"struct L1Read.TokenSupply","components":[{"name":"maxSupply","type":"uint64","internalType":"uint64"},{"name":"totalSupply","type":"uint64","internalType":"uint64"},{"name":"circulatingSupply","type":"uint64","internalType":"uint64"},{"name":"futureEmissions","type":"uint64","internalType":"uint64"},{"name":"nonCirculatingUserBalances","type":"tuple[]","internalType":"struct L1Read.UserBalance[]","components":[{"name":"user","type":"address","internalType":"address"},{"name":"balance","type":"uint64","internalType":"uint64"}]}]}],"stateMutability":"view"},{"type":"function","name":"userVaultEquity","inputs":[{"name":"user","type":"address","internalType":"address"},{"name":"vault","type":"address","internalType":"address"}],"outputs":[{"name":"","type":"tuple","internalType":"struct L1Read.UserVaultEquity","components":[{"name":"equity","type":"uint64","internalType":"uint64"},{"name":"lockedUntilTimestamp","type":"uint64","internalType":"uint64"}]}],"stateMutability":"view"},{"type":"function","name":"withdrawable","inputs":[{"name":"user","type":"address","internalType":"address"}],"outputs":[{"name":"","type":"tuple","internalType":"struct L1Read.Withdrawable","components":[{"name":"withdrawable","type":"uint64","internalType":"uint64"}]}],"stateMutability":"view"}],"bytecode":{"object":"0x608060405234801561001057600080fd5b50613268806100206000396000f3fe608060405234801561001057600080fd5b50600436106100ea5760003560e01c8063b6dff0b51161008c578063c0f0f5ef11610066578063c0f0f5ef146102bd578063c8eec8c6146102ed578063ce513b6f1461031d578063ee1b5af11461034d576100ea565b8063b6dff0b51461022d578063be06f7ac1461025d578063bffe34861461028d576100ea565b806368fb1109116100c857806368fb11091461016d57806389cf7c891461019d57806390702759146101cd578063a69610d1146101fd576100ea565b8063298c9005146100ef57806337f980a51461010d5780634162cd321461013d575b600080fd5b6100f761037d565b6040516101049190612e2f565b60405180910390f35b61012760048036038101906101229190611c22565b610461565b6040516101349190612d05565b60405180910390f35b61015760048036038101906101529190611f11565b610559565b6040516101649190612d20565b60405180910390f35b61018760048036038101906101829190611f11565b610651565b6040516101949190612d9a565b60405180910390f35b6101b760048036038101906101b29190611c87565b610749565b6040516101c49190612d42565b60405180910390f35b6101e760048036038101906101e29190611f11565b610844565b6040516101f49190612e2f565b60405180910390f35b61021760048036038101906102129190611cc3565b610935565b6040516102249190612d5d565b60405180910390f35b61024760048036038101906102429190611f11565b610a30565b6040516102549190612d78565b60405180910390f35b61027760048036038101906102729190611f11565b610b28565b6040516102849190612dbc565b60405180910390f35b6102a760048036038101906102a29190611c22565b610c20565b6040516102b49190612b23565b60405180910390f35b6102d760048036038101906102d29190611f11565b610d12565b6040516102e49190612e2f565b60405180910390f35b61030760048036038101906103029190611f11565b610e03565b6040516103149190612e2f565b60405180910390f35b61033760048036038101906103329190611c22565b610ef4565b6040516103449190612df9565b60405180910390f35b61036760048036038101906103629190611c4b565b610fec565b6040516103749190612dde565b60405180910390f35b600080606061080973ffffffffffffffffffffffffffffffffffffffff166040516020016040516020818303038152906040526040516103bd9190612a76565b600060405180830381855afa9150503d80600081146103f8576040519150601f19603f3d011682016040523d82523d6000602084013e6103fd565b606091505b50809250819350505081610446576040517f08c379a000000000000000000000000000000000000000000000000000000000815260040161043d90612c65565b60405180910390fd5b8080602001905181019061045a9190611f3a565b9250505090565b6104696110e7565b6000606061080573ffffffffffffffffffffffffffffffffffffffff16846040516020016104979190612a8d565b6040516020818303038152906040526040516104b39190612a76565b600060405180830381855afa9150503d80600081146104ee576040519150601f19603f3d011682016040523d82523d6000602084013e6104f3565b606091505b5080925081935050508161053c576040517f08c379a000000000000000000000000000000000000000000000000000000000815260040161053390612c85565b60405180910390fd5b808060200190518101906105509190611d40565b92505050919050565b610561611137565b6000606061080a73ffffffffffffffffffffffffffffffffffffffff168460405160200161058f9190612e14565b6040516020818303038152906040526040516105ab9190612a76565b600060405180830381855afa9150503d80600081146105e6576040519150601f19603f3d011682016040523d82523d6000602084013e6105eb565b606091505b50809250819350505081610634576040517f08c379a000000000000000000000000000000000000000000000000000000000815260040161062b90612c45565b60405180910390fd5b808060200190518101906106489190611d69565b92505050919050565b610659611174565b6000606061080c73ffffffffffffffffffffffffffffffffffffffff16846040516020016106879190612e14565b6040516020818303038152906040526040516106a39190612a76565b600060405180830381855afa9150503d80600081146106de576040519150601f19603f3d011682016040523d82523d6000602084013e6106e3565b606091505b5080925081935050508161072c576040517f08c379a000000000000000000000000000000000000000000000000000000000815260040161072390612b85565b60405180910390fd5b808060200190518101906107409190611e3d565b92505050919050565b6107516111f7565b6000606061080073ffffffffffffffffffffffffffffffffffffffff168585604051602001610781929190612ad1565b60405160208183030381529060405260405161079d9190612a76565b600060405180830381855afa9150503d80600081146107d8576040519150601f19603f3d011682016040523d82523d6000602084013e6107dd565b606091505b50809250819350505081610826576040517f08c379a000000000000000000000000000000000000000000000000000000000815260040161081d90612c25565b60405180910390fd5b8080602001905181019061083a9190611daa565b9250505092915050565b600080606061080873ffffffffffffffffffffffffffffffffffffffff16846040516020016108739190612e14565b60405160208183030381529060405260405161088f9190612a76565b600060405180830381855afa9150503d80600081146108ca576040519150601f19603f3d011682016040523d82523d6000602084013e6108cf565b606091505b50809250819350505081610918576040517f08c379a000000000000000000000000000000000000000000000000000000000815260040161090f90612cc5565b60405180910390fd5b8080602001905181019061092c9190611f3a565b92505050919050565b61093d61123e565b6000606061080173ffffffffffffffffffffffffffffffffffffffff16858560405160200161096d929190612afa565b6040516020818303038152906040526040516109899190612a76565b600060405180830381855afa9150503d80600081146109c4576040519150601f19603f3d011682016040523d82523d6000602084013e6109c9565b606091505b50809250819350505081610a12576040517f08c379a0000000000000000000000000000000000000000000000000000000008152600401610a0990612ba5565b60405180910390fd5b80806020019051810190610a269190611dd3565b9250505092915050565b610a3861127d565b6000606061080b73ffffffffffffffffffffffffffffffffffffffff1684604051602001610a669190612e14565b604051602081830303815290604052604051610a829190612a76565b600060405180830381855afa9150503d8060008114610abd576040519150601f19603f3d011682016040523d82523d6000602084013e610ac2565b606091505b50809250819350505081610b0b576040517f08c379a0000000000000000000000000000000000000000000000000000000008152600401610b0290612ce5565b60405180910390fd5b80806020019051810190610b1f9190611dfc565b92505050919050565b610b3061129d565b6000606061080d73ffffffffffffffffffffffffffffffffffffffff1684604051602001610b5e9190612e14565b604051602081830303815290604052604051610b7a9190612a76565b600060405180830381855afa9150503d8060008114610bb5576040519150601f19603f3d011682016040523d82523d6000602084013e610bba565b606091505b50809250819350505081610c03576040517f08c379a0000000000000000000000000000000000000000000000000000000008152600401610bfa90612be5565b60405180910390fd5b80806020019051810190610c179190611e7e565b92505050919050565b60606000606061080473ffffffffffffffffffffffffffffffffffffffff1684604051602001610c509190612a8d565b604051602081830303815290604052604051610c6c9190612a76565b600060405180830381855afa9150503d8060008114610ca7576040519150601f19603f3d011682016040523d82523d6000602084013e610cac565b606091505b50809250819350505081610cf5576040517f08c379a0000000000000000000000000000000000000000000000000000000008152600401610cec90612ca5565b60405180910390fd5b80806020019051810190610d099190611cff565b92505050919050565b600080606061080773ffffffffffffffffffffffffffffffffffffffff1684604051602001610d419190612e14565b604051602081830303815290604052604051610d5d9190612a76565b600060405180830381855afa9150503d8060008114610d98576040519150601f19603f3d011682016040523d82523d6000602084013e610d9d565b606091505b50809250819350505081610de6576040517f08c379a0000000000000000000000000000000000000000000000000000000008152600401610ddd90612b45565b60405180910390fd5b80806020019051810190610dfa9190611f3a565b92505050919050565b600080606061080673ffffffffffffffffffffffffffffffffffffffff1684604051602001610e329190612e14565b604051602081830303815290604052604051610e4e9190612a76565b600060405180830381855afa9150503d8060008114610e89576040519150601f19603f3d011682016040523d82523d6000602084013e610e8e565b606091505b50809250819350505081610ed7576040517f08c379a0000000000000000000000000000000000000000000000000000000008152600401610ece90612bc5565b60405180910390fd5b80806020019051810190610eeb9190611f3a565b92505050919050565b610efc6112f4565b6000606061080373ffffffffffffffffffffffffffffffffffffffff1684604051602001610f2a9190612a8d565b604051602081830303815290604052604051610f469190612a76565b600060405180830381855afa9150503d8060008114610f81576040519150601f19603f3d011682016040523d82523d6000602084013e610f86565b606091505b50809250819350505081610fcf576040517f08c379a0000000000000000000000000000000000000000000000000000000008152600401610fc690612c05565b60405180910390fd5b80806020019051810190610fe39190611ee8565b92505050919050565b610ff4611311565b6000606061080273ffffffffffffffffffffffffffffffffffffffff168585604051602001611024929190612aa8565b6040516020818303038152906040526040516110409190612a76565b600060405180830381855afa9150503d806000811461107b576040519150601f19603f3d011682016040523d82523d6000602084013e611080565b606091505b508092508193505050816110c9576040517f08c379a00000000000000000000000000000000000000000000000000000000081526004016110c090612b65565b60405180910390fd5b808060200190518101906110dd9190611ebf565b9250505092915050565b6040518060800160405280600067ffffffffffffffff168152602001600067ffffffffffffffff168152602001600067ffffffffffffffff168152602001600067ffffffffffffffff1681525090565b6040518060a0016040528060608152602001600063ffffffff168152602001600060ff168152602001600060ff1681526020016000151581525090565b6040518061010001604052806060815260200160608152602001600067ffffffffffffffff168152602001600073ffffffffffffffffffffffffffffffffffffffff168152602001600073ffffffffffffffffffffffffffffffffffffffff168152602001600060ff168152602001600060ff1681526020016000800b81525090565b6040518060a00160405280600060070b8152602001600067ffffffffffffffff168152602001600060070b8152602001600063ffffffff1681526020016000151581525090565b6040518060600160405280600067ffffffffffffffff168152602001600067ffffffffffffffff168152602001600067ffffffffffffffff1681525090565b60405180604001604052806060815260200161129761133f565b81525090565b6040518060a00160405280600067ffffffffffffffff168152602001600067ffffffffffffffff168152602001600067ffffffffffffffff168152602001600067ffffffffffffffff168152602001606081525090565b6040518060200160405280600067ffffffffffffffff1681525090565b6040518060400160405280600067ffffffffffffffff168152602001600067ffffffffffffffff1681525090565b6040518060400160405280600290602082028036833780820191505090505090565b600061137461136f84612e7b565b612e4a565b9050808382526020820190508285606086028201111561139357600080fd5b60005b858110156113c357816113a9888261167e565b845260208401935060608301925050600181019050611396565b5050509392505050565b60006113e06113db84612ea7565b612e4a565b905080838252602082019050828560408602820111156113ff57600080fd5b60005b8581101561142f57816114158882611ad4565b845260208401935060408301925050600181019050611402565b5050509392505050565b600061144c61144784612ed3565b612e4a565b9050808285602086028201111561146257600080fd5b60005b8581101561149257816114788882611bf8565b845260208401935060208301925050600181019050611465565b5050509392505050565b60006114af6114aa84612ef9565b612e4a565b905080838252602082019050828560208602820111156114ce57600080fd5b60005b858110156114fe57816114e48882611bf8565b8452602084019350602083019250506001810190506114d1565b5050509392505050565b600061151b61151684612f25565b612e4a565b90508281526020810184848401111561153357600080fd5b61153e848285613107565b509392505050565b6000813590506115558161317a565b92915050565b60008151905061156a8161317a565b92915050565b600082601f83011261158157600080fd5b8151611591848260208601611361565b91505092915050565b600082601f8301126115ab57600080fd5b81516115bb8482602086016113cd565b91505092915050565b600082601f8301126115d557600080fd5b60026115e2848285611439565b91505092915050565b600082601f8301126115fc57600080fd5b815161160c84826020860161149c565b91505092915050565b60008151905061162481613191565b92915050565b600081519050611639816131a8565b92915050565b60008151905061164e816131bf565b92915050565b600082601f83011261166557600080fd5b8151611675848260208601611508565b91505092915050565b60006060828403121561169057600080fd5b61169a6060612e4a565b905060006116aa8482850161155b565b60008301525060206116be84828501611bf8565b60208301525060406116d284828501611bf8565b60408301525092915050565b6000608082840312156116f057600080fd5b6116fa6080612e4a565b9050600061170a84828501611bf8565b600083015250602061171e84828501611bf8565b602083015250604061173284828501611bf8565b604083015250606061174684828501611bf8565b60608301525092915050565b600060a0828403121561176457600080fd5b61176e60a0612e4a565b9050600082015167ffffffffffffffff81111561178a57600080fd5b61179684828501611654565b60008301525060206117aa84828501611bce565b60208301525060406117be84828501611c0d565b60408301525060606117d284828501611c0d565b60608301525060806117e684828501611615565b60808301525092915050565b600060a0828403121561180457600080fd5b61180e60a0612e4a565b9050600061181e8482850161162a565b600083015250602061183284828501611bf8565b60208301525060406118468482850161162a565b604083015250606061185a84828501611bce565b606083015250608061186e84828501611615565b60808301525092915050565b60006060828403121561188c57600080fd5b6118966060612e4a565b905060006118a684828501611bf8565b60008301525060206118ba84828501611bf8565b60208301525060406118ce84828501611bf8565b60408301525092915050565b6000606082840312156118ec57600080fd5b6118f66040612e4a565b9050600082015167ffffffffffffffff81111561191257600080fd5b61191e84828501611654565b6000830152506020611932848285016115c4565b60208301525092915050565b6000610100828403121561195157600080fd5b61195c610100612e4a565b9050600082015167ffffffffffffffff81111561197857600080fd5b61198484828501611654565b600083015250602082015167ffffffffffffffff8111156119a457600080fd5b6119b0848285016115eb565b60208301525060406119c484828501611bf8565b60408301525060606119d88482850161155b565b60608301525060806119ec8482850161155b565b60808301525060a0611a0084828501611c0d565b60a08301525060c0611a1484828501611c0d565b60c08301525060e0611a288482850161163f565b60e08301525092915050565b600060a08284031215611a4657600080fd5b611a5060a0612e4a565b90506000611a6084828501611bf8565b6000830152506020611a7484828501611bf8565b6020830152506040611a8884828501611bf8565b6040830152506060611a9c84828501611bf8565b606083015250608082015167ffffffffffffffff811115611abc57600080fd5b611ac88482850161159a565b60808301525092915050565b600060408284031215611ae657600080fd5b611af06040612e4a565b90506000611b008482850161155b565b6000830152506020611b1484828501611bf8565b60208301525092915050565b600060408284031215611b3257600080fd5b611b3c6040612e4a565b90506000611b4c84828501611bf8565b6000830152506020611b6084828501611bf8565b60208301525092915050565b600060208284031215611b7e57600080fd5b611b886020612e4a565b90506000611b9884828501611bf8565b60008301525092915050565b600081359050611bb3816131d6565b92915050565b600081359050611bc8816131ed565b92915050565b600081519050611bdd816131ed565b92915050565b600081359050611bf281613204565b92915050565b600081519050611c0781613204565b92915050565b600081519050611c1c8161321b565b92915050565b600060208284031215611c3457600080fd5b6000611c4284828501611546565b91505092915050565b60008060408385031215611c5e57600080fd5b6000611c6c85828601611546565b9250506020611c7d85828601611546565b9150509250929050565b60008060408385031215611c9a57600080fd5b6000611ca885828601611546565b9250506020611cb985828601611ba4565b9150509250929050565b60008060408385031215611cd657600080fd5b6000611ce485828601611546565b9250506020611cf585828601611be3565b9150509250929050565b600060208284031215611d1157600080fd5b600082015167ffffffffffffffff811115611d2b57600080fd5b611d3784828501611570565b91505092915050565b600060808284031215611d5257600080fd5b6000611d60848285016116de565b91505092915050565b600060208284031215611d7b57600080fd5b600082015167ffffffffffffffff811115611d9557600080fd5b611da184828501611752565b91505092915050565b600060a08284031215611dbc57600080fd5b6000611dca848285016117f2565b91505092915050565b600060608284031215611de557600080fd5b6000611df38482850161187a565b91505092915050565b600060208284031215611e0e57600080fd5b600082015167ffffffffffffffff811115611e2857600080fd5b611e34848285016118da565b91505092915050565b600060208284031215611e4f57600080fd5b600082015167ffffffffffffffff811115611e6957600080fd5b611e758482850161193e565b91505092915050565b600060208284031215611e9057600080fd5b600082015167ffffffffffffffff811115611eaa57600080fd5b611eb684828501611a34565b91505092915050565b600060408284031215611ed157600080fd5b6000611edf84828501611b20565b91505092915050565b600060208284031215611efa57600080fd5b6000611f0884828501611b6c565b91505092915050565b600060208284031215611f2357600080fd5b6000611f3184828501611bb9565b91505092915050565b600060208284031215611f4c57600080fd5b6000611f5a84828501611bf8565b91505092915050565b6000611f6f8383612681565b60608301905092915050565b6000611f8783836129a2565b60408301905092915050565b6000611f9f8383612a49565b60208301905092915050565b611fb481613070565b82525050565b611fc381613070565b82525050565b6000611fd482612f8f565b611fde8185613005565b9350611fe983612f55565b8060005b8381101561201a5781516120018882611f63565b975061200c83612fd1565b925050600181019050611fed565b5085935050505092915050565b600061203282612f9a565b61203c8185613016565b935061204783612f65565b8060005b8381101561207857815161205f8882611f7b565b975061206a83612fde565b92505060018101905061204b565b5085935050505092915050565b61208e81612fa5565b6120988184613027565b92506120a382612f75565b8060005b838110156120d45781516120bb8782611f93565b96506120c683612feb565b9250506001810190506120a7565b505050505050565b60006120e782612fb0565b6120f18185613032565b93506120fc83612f7f565b8060005b8381101561212d5781516121148882611f93565b975061211f83612ff8565b925050600181019050612100565b5085935050505092915050565b61214381613082565b82525050565b600061215482612fbb565b61215e8185613043565b935061216e818560208601613107565b80840191505092915050565b6121838161308e565b82525050565b6121928161309b565b82525050565b60006121a382612fc6565b6121ad818561304e565b93506121bd818560208601613107565b6121c681613169565b840191505092915050565b60006121de601f8361305f565b91507f4f7261636c65507820707265636f6d70696c652063616c6c206661696c6564006000830152602082019050919050565b600061221e60228361305f565b91507f5661756c7445717569747920707265636f6d70696c652063616c6c206661696c60008301527f65640000000000000000000000000000000000000000000000000000000000006020830152604082019050919050565b600061228460208361305f565b91507f546f6b656e496e666f20707265636f6d70696c652063616c6c206661696c65646000830152602082019050919050565b60006122c460228361305f565b91507f53706f7442616c616e636520707265636f6d70696c652063616c6c206661696c60008301527f65640000000000000000000000000000000000000000000000000000000000006020830152604082019050919050565b600061232a601d8361305f565b91507f4d61726b507820707265636f6d70696c652063616c6c206661696c65640000006000830152602082019050919050565b600061236a60228361305f565b91507f546f6b656e537570706c7920707265636f6d70696c652063616c6c206661696c60008301527f65640000000000000000000000000000000000000000000000000000000000006020830152604082019050919050565b60006123d060238361305f565b91507f576974686472617761626c6520707265636f6d70696c652063616c6c2066616960008301527f6c656400000000000000000000000000000000000000000000000000000000006020830152604082019050919050565b6000612436601f8361305f565b91507f506f736974696f6e20707265636f6d70696c652063616c6c206661696c6564006000830152602082019050919050565b600061247660248361305f565b91507f506572704173736574496e666f20707265636f6d70696c652063616c6c20666160008301527f696c6564000000000000000000000000000000000000000000000000000000006020830152604082019050919050565b60006124dc60248361305f565b91507f4c31426c6f636b4e756d62657220707265636f6d70696c652063616c6c20666160008301527f696c6564000000000000000000000000000000000000000000000000000000006020830152604082019050919050565b600061254260288361305f565b91507f44656c656761746f727953756d6d61727920707265636f6d70696c652063616c60008301527f6c206661696c65640000000000000000000000000000000000000000000000006020830152604082019050919050565b60006125a860228361305f565b91507f44656c65676174696f6e7320707265636f6d70696c652063616c6c206661696c60008301527f65640000000000000000000000000000000000000000000000000000000000006020830152604082019050919050565b600061260e601d8361305f565b91507f53706f74507820707265636f6d70696c652063616c6c206661696c65640000006000830152602082019050919050565b600061264e601f8361305f565b91507f53706f74496e666f20707265636f6d70696c652063616c6c206661696c6564006000830152602082019050919050565b6060820160008201516126976000850182611fab565b5060208201516126aa6020850182612a49565b5060408201516126bd6040850182612a49565b50505050565b6080820160008201516126d96000850182612a49565b5060208201516126ec6020850182612a49565b5060408201516126ff6040850182612a49565b5060608201516127126060850182612a49565b50505050565b600060a08301600083015184820360008601526127358282612198565b915050602083015161274a6020860182612a2b565b50604083015161275d6040860182612a67565b5060608301516127706060860182612a67565b506080830151612783608086018261213a565b508091505092915050565b60a0820160008201516127a4600085018261217a565b5060208201516127b76020850182612a49565b5060408201516127ca604085018261217a565b5060608201516127dd6060850182612a2b565b5060808201516127f0608085018261213a565b50505050565b60608201600082015161280c6000850182612a49565b50602082015161281f6020850182612a49565b5060408201516128326040850182612a49565b50505050565b600060608301600083015184820360008601526128558282612198565b915050602083015161286a6020860182612085565b508091505092915050565b60006101008301600083015184820360008601526128938282612198565b915050602083015184820360208601526128ad82826120dc565b91505060408301516128c26040860182612a49565b5060608301516128d56060860182611fab565b5060808301516128e86080860182611fab565b5060a08301516128fb60a0860182612a67565b5060c083015161290e60c0860182612a67565b5060e083015161292160e0860182612189565b508091505092915050565b600060a0830160008301516129446000860182612a49565b5060208301516129576020860182612a49565b50604083015161296a6040860182612a49565b50606083015161297d6060860182612a49565b50608083015184820360808601526129958282612027565b9150508091505092915050565b6040820160008201516129b86000850182611fab565b5060208201516129cb6020850182612a49565b50505050565b6040820160008201516129e76000850182612a49565b5060208201516129fa6020850182612a49565b50505050565b602082016000820151612a166000850182612a49565b50505050565b612a25816130a8565b82525050565b612a34816130d6565b82525050565b612a43816130d6565b82525050565b612a52816130e6565b82525050565b612a61816130e6565b82525050565b612a70816130fa565b82525050565b6000612a828284612149565b915081905092915050565b6000602082019050612aa26000830184611fba565b92915050565b6000604082019050612abd6000830185611fba565b612aca6020830184611fba565b9392505050565b6000604082019050612ae66000830185611fba565b612af36020830184612a1c565b9392505050565b6000604082019050612b0f6000830185611fba565b612b1c6020830184612a58565b9392505050565b60006020820190508181036000830152612b3d8184611fc9565b905092915050565b60006020820190508181036000830152612b5e816121d1565b9050919050565b60006020820190508181036000830152612b7e81612211565b9050919050565b60006020820190508181036000830152612b9e81612277565b9050919050565b60006020820190508181036000830152612bbe816122b7565b9050919050565b60006020820190508181036000830152612bde8161231d565b9050919050565b60006020820190508181036000830152612bfe8161235d565b9050919050565b60006020820190508181036000830152612c1e816123c3565b9050919050565b60006020820190508181036000830152612c3e81612429565b9050919050565b60006020820190508181036000830152612c5e81612469565b9050919050565b60006020820190508181036000830152612c7e816124cf565b9050919050565b60006020820190508181036000830152612c9e81612535565b9050919050565b60006020820190508181036000830152612cbe8161259b565b9050919050565b60006020820190508181036000830152612cde81612601565b9050919050565b60006020820190508181036000830152612cfe81612641565b9050919050565b6000608082019050612d1a60008301846126c3565b92915050565b60006020820190508181036000830152612d3a8184612718565b905092915050565b600060a082019050612d57600083018461278e565b92915050565b6000606082019050612d7260008301846127f6565b92915050565b60006020820190508181036000830152612d928184612838565b905092915050565b60006020820190508181036000830152612db48184612875565b905092915050565b60006020820190508181036000830152612dd6818461292c565b905092915050565b6000604082019050612df360008301846129d1565b92915050565b6000602082019050612e0e6000830184612a00565b92915050565b6000602082019050612e296000830184612a3a565b92915050565b6000602082019050612e446000830184612a58565b92915050565b6000604051905081810181811067ffffffffffffffff82111715612e7157612e7061313a565b5b8060405250919050565b600067ffffffffffffffff821115612e9657612e9561313a565b5b602082029050602081019050919050565b600067ffffffffffffffff821115612ec257612ec161313a565b5b602082029050602081019050919050565b600067ffffffffffffffff821115612eee57612eed61313a565b5b602082029050919050565b600067ffffffffffffffff821115612f1457612f1361313a565b5b602082029050602081019050919050565b600067ffffffffffffffff821115612f4057612f3f61313a565b5b601f19601f8301169050602081019050919050565b6000819050602082019050919050565b6000819050602082019050919050565b6000819050919050565b6000819050602082019050919050565b600081519050919050565b600081519050919050565b600060029050919050565b600081519050919050565b600081519050919050565b600081519050919050565b6000602082019050919050565b6000602082019050919050565b6000602082019050919050565b6000602082019050919050565b600082825260208201905092915050565b600082825260208201905092915050565b600081905092915050565b600082825260208201905092915050565b600081905092915050565b600082825260208201905092915050565b600082825260208201905092915050565b600061307b826130b6565b9050919050565b60008115159050919050565b60008160070b9050919050565b60008160000b9050919050565b600061ffff82169050919050565b600073ffffffffffffffffffffffffffffffffffffffff82169050919050565b600063ffffffff82169050919050565b600067ffffffffffffffff82169050919050565b600060ff82169050919050565b60005b8381101561312557808201518184015260208101905061310a565b83811115613134576000848401525b50505050565b7f4e487b7100000000000000000000000000000000000000000000000000000000600052604160045260246000fd5b6000601f19601f8301169050919050565b61318381613070565b811461318e57600080fd5b50565b61319a81613082565b81146131a557600080fd5b50565b6131b18161308e565b81146131bc57600080fd5b50565b6131c88161309b565b81146131d357600080fd5b50565b6131df816130a8565b81146131ea57600080fd5b50565b6131f6816130d6565b811461320157600080fd5b50565b61320d816130e6565b811461321857600080fd5b50565b613224816130fa565b811461322f57600080fd5b5056fea2646970667358221220481503668ac46a116a214b5d402b77a43bf0cdee2e6f47881824e48beba8b89564736f6c63430008000033","linkReferences":{}},"methodIdentifiers":{"delegations(address)":"bffe3486","delegatorSummary(address)":"37f980a5","l1BlockNumber()":"298c9005","markPx(uint32)":"c8eec8c6","oraclePx(uint32)":"c0f0f5ef","perpAssetInfo(uint32)":"4162cd32","position(address,uint16)":"89cf7c89","spotBalance(address,uint64)":"a69610d1","spotInfo(uint32)":"b6dff0b5","spotPx(uint32)":"90702759","tokenInfo(uint32)":"68fb1109","tokenSupply(uint32)":"be06f7ac","userVaultEquity(address,address)":"ee1b5af1","withdrawable(address)":"ce513b6f"},"id":0}