{"abi":[{"type":"function","name":"sendUsdClassTransfer","inputs":[{"name":"ntl","type":"uint64","internalType":"uint64"},{"name":"toPerp","type":"bool","internalType":"bool"}],"outputs":[],"stateMutability":"nonpayable"}],"bytecode":{"object":"0x608060405234801561001057600080fd5b506106cf806100206000396000f3fe608060405234801561001057600080fd5b506004361061002b5760003560e01c80632d9d5db614610030575b600080fd5b61004a60048036038101906100459190610435565b61004c565b005b600082826040516020016100619291906104ea565b6040516020818303038152906040529050600081516004610082919061052f565b67ffffffffffffffff8111156100c1577f4e487b7100000000000000000000000000000000000000000000000000000000600052604160045260246000fd5b6040519080825280601f01601f1916602001820160405280156100f35781602001600182028036833780820191505090505b509050600160f81b81600081518110610135577f4e487b7100000000000000000000000000000000000000000000000000000000600052603260045260246000fd5b60200101907effffffffffffffffffffffffffffffffffffffffffffffffffffffffffffff1916908160001a905350600060f81b816001815181106101a3577f4e487b7100000000000000000000000000000000000000000000000000000000600052603260045260246000fd5b60200101907effffffffffffffffffffffffffffffffffffffffffffffffffffffffffffff1916908160001a905350600060f81b81600281518110610211577f4e487b7100000000000000000000000000000000000000000000000000000000600052603260045260246000fd5b60200101907effffffffffffffffffffffffffffffffffffffffffffffffffffffffffffff1916908160001a905350600760f81b8160038151811061027f577f4e487b7100000000000000000000000000000000000000000000000000000000600052603260045260246000fd5b60200101907effffffffffffffffffffffffffffffffffffffffffffffffffffffffffffff1916908160001a90535060005b8251811015610385578281815181106102f3577f4e487b7100000000000000000000000000000000000000000000000000000000600052603260045260246000fd5b602001015160f81c60f81b8282600461030c919061052f565b81518110610343577f4e487b7100000000000000000000000000000000000000000000000000000000600052603260045260246000fd5b60200101907effffffffffffffffffffffffffffffffffffffffffffffffffffffffffffff1916908160001a905350808061037d906105e2565b9150506102b1565b5073333333333333333333333333333333333333333373ffffffffffffffffffffffffffffffffffffffff166317938e13826040518263ffffffff1660e01b81526004016103d391906104c8565b600060405180830381600087803b1580156103ed57600080fd5b505af1158015610401573d6000803e3d6000fd5b5050505050505050565b60008135905061041a8161066b565b92915050565b60008135905061042f81610682565b92915050565b6000806040838503121561044857600080fd5b600061045685828601610420565b92505060206104678582860161040b565b9150509250929050565b61047a81610585565b82525050565b600061048b82610513565b610495818561051e565b93506104a58185602086016105af565b6104ae8161065a565b840191505092915050565b6104c28161059b565b82525050565b600060208201905081810360008301526104e28184610480565b905092915050565b60006040820190506104ff60008301856104b9565b61050c6020830184610471565b9392505050565b600081519050919050565b600082825260208201905092915050565b600061053a82610591565b915061054583610591565b9250827fffffffffffffffffffffffffffffffffffffffffffffffffffffffffffffffff0382111561057a5761057961062b565b5b828201905092915050565b60008115159050919050565b6000819050919050565b600067ffffffffffffffff82169050919050565b60005b838110156105cd5780820151818401526020810190506105b2565b838111156105dc576000848401525b50505050565b60006105ed82610591565b91507fffffffffffffffffffffffffffffffffffffffffffffffffffffffffffffffff8214156106205761061f61062b565b5b600182019050919050565b7f4e487b7100000000000000000000000000000000000000000000000000000000600052601160045260246000fd5b6000601f19601f8301169050919050565b61067481610585565b811461067f57600080fd5b50565b61068b8161059b565b811461069657600080fd5b5056fea2646970667358221220b5aa4fcc905da9087bfaae13c34b618195613d8a86d912d3320a02239a99dda264736f6c63430008000033","linkReferences":{}},"methodIdentifiers":{"sendUsdClassTransfer(uint64,bool)":"2d9d5db6"},"id":1}