{"abi":[{"type":"function","name":"addApiWallet","inputs":[{"name":"wallet","type":"address","internalType":"address"},{"name":"name","type":"string","internalType":"string"}],"outputs":[],"stateMutability":"nonpayable"},{"type":"function","name":"checkSufficientBalance","inputs":[{"name":"user","type":"address","internalType":"address"},{"name":"token","type":"uint64","internalType":"uint64"},{"name":"requiredAmount","type":"uint64","internalType":"uint64"}],"outputs":[{"name":"hasBalance","type":"bool","internalType":"bool"},{"name":"availableBalance","type":"uint64","internalType":"uint64"}],"stateMutability":"view"},{"type":"function","name":"finalizeEvmContract","inputs":[{"name":"token","type":"uint64","internalType":"uint64"},{"name":"variant","type":"uint8","internalType":"uint8"},{"name":"createNonce","type":"uint64","internalType":"uint64"}],"outputs":[],"stateMutability":"nonpayable"},{"type":"function","name":"getAccountInfo","inputs":[{"name":"user","type":"address","internalType":"address"},{"name":"perpAsset","type":"uint16","internalType":"uint16"},{"name":"spotToken","type":"uint64","internalType":"uint64"}],"outputs":[{"name":"position","type":"tuple","internalType":"struct L1Read.Position","components":[{"name":"szi","type":"int64","internalType":"int64"},{"name":"entryNtl","type":"uint64","internalType":"uint64"},{"name":"isolatedRawUsd","type":"int64","internalType":"int64"},{"name":"leverage","type":"uint32","internalType":"uint32"},{"name":"isIsolated","type":"bool","internalType":"bool"}]},{"name":"spotBalance","type":"tuple","internalType":"struct L1Read.SpotBalance","components":[{"name":"total","type":"uint64","internalType":"uint64"},{"name":"hold","type":"uint64","internalType":"uint64"},{"name":"entryNtl","type":"uint64","internalType":"uint64"}]},{"name":"withdrawable","type":"tuple","internalType":"struct L1Read.Withdrawable","components":[{"name":"withdrawable","type":"uint64","internalType":"uint64"}]},{"name":"delegatorSummary","type":"tuple","internalType":"struct L1Read.DelegatorSummary","components":[{"name":"delegated","type":"uint64","internalType":"uint64"},{"name":"undelegated","type":"uint64","internalType":"uint64"},{"name":"totalPendingWithdrawal","type":"uint64","internalType":"uint64"},{"name":"nPendingWithdrawals","type":"uint64","internalType":"uint64"}]}],"stateMutability":"view"},{"type":"function","name":"getL1BlockNumber","inputs":[],"outputs":[{"name":"blockNumber","type":"uint64","internalType":"uint64"}],"stateMutability":"view"},{"type":"function","name":"getMarketData","inputs":[{"name":"assetIndex","type":"uint32","internalType":"uint32"}],"outputs":[{"name":"markPrice","type":"uint64","internalType":"uint64"},{"name":"oraclePrice","type":"uint64","internalType":"uint64"},{"name":"assetInfo","type":"tuple","internalType":"struct L1Read.PerpAssetInfo","components":[{"name":"coin","type":"string","internalType":"string"},{"name":"marginTableId","type":"uint32","internalType":"uint32"},{"name":"szDecimals","type":"uint8","internalType":"uint8"},{"name":"maxLeverage","type":"uint8","internalType":"uint8"},{"name":"onlyIsolated","type":"bool","internalType":"bool"}]}],"stateMutability":"view"},{"type":"function","name":"getPerpOraclePrice","inputs":[{"name":"asset","type":"uint32","internalType":"uint32"}],"outputs":[{"name":"price","type":"uint64","internalType":"uint64"}],"stateMutability":"view"},{"type":"function","name":"getPerpPosition","inputs":[{"name":"user","type":"address","internalType":"address"},{"name":"asset","type":"uint32","internalType":"uint32"}],"outputs":[{"name":"size","type":"int64","internalType":"int64"},{"name":"entryPx","type":"uint64","internalType":"uint64"},{"name":"unrealizedPnl","type":"uint64","internalType":"uint64"}],"stateMutability":"view"},{"type":"function","name":"getSpotBalance","inputs":[{"name":"user","type":"address","internalType":"address"},{"name":"token","type":"uint32","internalType":"uint32"}],"outputs":[{"name":"balance","type":"uint64","internalType":"uint64"}],"stateMutability":"view"},{"type":"function","name":"getSpotOraclePrice","inputs":[{"name":"asset","type":"uint32","internalType":"uint32"}],"outputs":[{"name":"price","type":"uint64","internalType":"uint64"}],"stateMutability":"view"},{"type":"function","name":"getStakingDelegation","inputs":[{"name":"user","type":"address","internalType":"address"},{"name":"validator","type":"address","internalType":"address"}],"outputs":[{"name":"delegation","type":"uint64","internalType":"uint64"}],"stateMutability":"view"},{"type":"function","name":"getVaultEquity","inputs":[{"name":"vault","type":"address","internalType":"address"}],"outputs":[{"name":"equity","type":"uint64","internalType":"uint64"}],"stateMutability":"view"},{"type":"function","name":"marketBuy","inputs":[{"name":"asset","type":"uint32","internalType":"uint32"},{"name":"sz","type":"uint64","internalType":"uint64"},{"name":"maxPrice","type":"uint64","internalType":"uint64"}],"outputs":[],"stateMutability":"nonpayable"},{"type":"function","name":"marketSell","inputs":[{"name":"asset","type":"uint32","internalType":"uint32"},{"name":"sz","type":"uint64","internalType":"uint64"},{"name":"minPrice","type":"uint64","internalType":"uint64"}],"outputs":[],"stateMutability":"nonpayable"},{"type":"function","name":"placeLimitOrder","inputs":[{"name":"asset","type":"uint32","internalType":"uint32"},{"name":"isBuy","type":"bool","internalType":"bool"},{"name":"limitPx","type":"uint64","internalType":"uint64"},{"name":"sz","type":"uint64","internalType":"uint64"},{"name":"reduceOnly","type":"bool","internalType":"bool"},{"name":"tif","type":"uint8","internalType":"uint8"},{"name":"cloid","type":"uint128","internalType":"uint128"}],"outputs":[],"stateMutability":"nonpayable"},{"type":"function","name":"spotSend","inputs":[{"name":"destination","type":"address","internalType":"address"},{"name":"token","type":"uint64","internalType":"uint64"},{"name":"amount","type":"uint64","internalType":"uint64"}],"outputs":[],"stateMutability":"nonpayable"},{"type":"function","name":"stakingDeposit","inputs":[{"name":"amount","type":"uint64","internalType":"uint64"}],"outputs":[],"stateMutability":"nonpayable"},{"type":"function","name":"stakingWithdraw","inputs":[{"name":"amount","type":"uint64","internalType":"uint64"}],"outputs":[],"stateMutability":"nonpayable"},{"type":"function","name":"tokenDelegate","inputs":[{"name":"validator","type":"address","internalType":"address"},{"name":"amount","type":"uint64","internalType":"uint64"},{"name":"isUndelegate","type":"bool","internalType":"bool"}],"outputs":[],"stateMutability":"nonpayable"},{"type":"function","name":"usdClassTransfer","inputs":[{"name":"ntl","type":"uint64","internalType":"uint64"},{"name":"toPerp","type":"bool","internalType":"bool"}],"outputs":[],"stateMutability":"nonpayable"},{"type":"function","name":"vaultTransfer","inputs":[{"name":"vault","type":"address","internalType":"address"},{"name":"isDeposit","type":"bool","internalType":"bool"},{"name":"usd","type":"uint64","internalType":"uint64"}],"outputs":[],"stateMutability":"nonpayable"},{"type":"event","name":"APIWalletAdded","inputs":[{"name":"wallet","type":"address","indexed":false,"internalType":"address"},{"name":"name","type":"string","indexed":false,"internalType":"string"}],"anonymous":false},{"type":"event","name":"EVMContractFinalized","inputs":[{"name":"token","type":"uint64","indexed":false,"internalType":"uint64"},{"name":"variant","type":"uint8","indexed":false,"internalType":"uint8"},{"name":"createNonce","type":"uint64","indexed":false,"internalType":"uint64"}],"anonymous":false},{"type":"event","name":"LimitOrderPlaced","inputs":[{"name":"asset","type":"uint32","indexed":false,"internalType":"uint32"},{"name":"isBuy","type":"bool","indexed":false,"internalType":"bool"},{"name":"limitPx","type":"uint64","indexed":false,"internalType":"uint64"},{"name":"sz","type":"uint64","indexed":false,"internalType":"uint64"}],"anonymous":false},{"type":"event","name":"SpotSent","inputs":[{"name":"destination","type":"address","indexed":false,"internalType":"address"},{"name":"token","type":"uint64","indexed":false,"internalType":"uint64"},{"name":"amount","type":"uint64","indexed":false,"internalType":"uint64"}],"anonymous":false},{"type":"event","name":"StakingDeposit","inputs":[{"name":"amount","type":"uint64","indexed":false,"internalType":"uint64"}],"anonymous":false},{"type":"event","name":"StakingWithdraw","inputs":[{"name":"amount","type":"uint64","indexed":false,"internalType":"uint64"}],"anonymous":false},{"type":"event","name":"TokenDelegated","inputs":[{"name":"validator","type":"address","indexed":false,"internalType":"address"},{"name":"amount","type":"uint64","indexed":false,"internalType":"uint64"},{"name":"isUndelegate","type":"bool","indexed":false,"internalType":"bool"}],"anonymous":false},{"type":"event","name":"USDClassTransfer","inputs":[{"name":"ntl","type":"uint64","indexed":false,"internalType":"uint64"},{"name":"toPerp","type":"bool","indexed":false,"internalType":"bool"}],"anonymous":false},{"type":"event","name":"VaultTransferExecuted","inputs":[{"name":"vault","type":"address","indexed":false,"internalType":"address"},{"name":"isDeposit","type":"bool","indexed":false,"internalType":"bool"},{"name":"usd","type":"uint64","indexed":false,"internalType":"uint64"}],"anonymous":false}],"bytecode":{"object":"0x608060405234801561001057600080fd5b50613150806100206000396000f3fe608060405234801561001057600080fd5b50600436106101375760003560e01c8063690d0f78116100b8578063be00824a1161007c578063be00824a14610360578063c6270a791461037c578063c99d682f146103ac578063da7a6e8c146103c8578063dfccd8e5146103fa578063f309cbbc1461041657610137565b8063690d0f78146102be5780637687a4b0146102da57806388ea65de1461030a578063b9b3efe914610326578063bcaba1571461034457610137565b80632b28b28f116100ff5780632b28b28f146101f3578063447617051461020f57806345a36ddb1461023f5780635bb43cff146102705780636338049a1461028c57610137565b806305fc9ca91461013c578063152986af146101585780631ed4721f146101745780632621c89b146101a45780632a2ab9d6146101d7575b600080fd5b6101566004803603810190610151919061264d565b610446565b005b610172600480360381019061016d919061230b565b61053e565b005b61018e600480360381019061018991906124a9565b610636565b60405161019b9190612c9f565b60405180910390f35b6101be60048036038101906101b99190612231565b6106ca565b6040516101ce9493929190612b88565b60405180910390f35b6101f160048036038101906101ec919061218e565b61092b565b005b61020d600480360381019061020891906121dd565b610a23565b005b610229600480360381019061022491906124a9565b610b16565b6040516102369190612c9f565b60405180910390f35b6102596004803603810190610254919061230b565b610baa565b604051610267929190612b06565b60405180910390f35b61028a600480360381019061028591906122bc565b610c77565b005b6102a660048036038101906102a19190612280565b610d6f565b6040516102b593929190612b51565b60405180910390f35b6102d860048036038101906102d39190612570565b610e1e565b005b6102f460048036038101906102ef9190612129565b610e36565b6040516103019190612c9f565b60405180910390f35b610324600480360381019061031f9190612570565b610ed5565b005b61032e610eed565b60405161033b9190612c9f565b60405180910390f35b61035e600480360381019061035991906125bf565b610f74565b005b61037a600480360381019061037591906125bf565b611062565b005b61039660048036038101906103919190612280565b611150565b6040516103a39190612c9f565b60405180910390f35b6103c660048036038101906103c191906124d2565b6111f6565b005b6103e260048036038101906103dd91906124a9565b6112fc565b6040516103f193929190612ce3565b60405180910390f35b610414600480360381019061040f9190612611565b611509565b005b610430600480360381019061042b9190612152565b6115fc565b60405161043d9190612c9f565b60405180910390f35b600083838360405160200161045d93929190612d21565b6040516020818303038152906040529050600061047b600883611783565b905073333333333333333333333333333333333333333373ffffffffffffffffffffffffffffffffffffffff166317938e13826040518263ffffffff1660e01b81526004016104ca9190612b2f565b600060405180830381600087803b1580156104e457600080fd5b505af11580156104f8573d6000803e3d6000fd5b505050507fa617feba87328712d409c442122241a01b15d297876112755f9ce2a335f1c9c585858560405161052f93929190612d21565b60405180910390a15050505050565b600083838360405160200161055593929190612acf565b60405160208183030381529060405290506000610573600683611783565b905073333333333333333333333333333333333333333373ffffffffffffffffffffffffffffffffffffffff166317938e13826040518263ffffffff1660e01b81526004016105c29190612b2f565b600060405180830381600087803b1580156105dc57600080fd5b505af11580156105f0573d6000803e3d6000fd5b505050507ff8b12d4095105942d7fcab8c9a49741e2c5f2ea4fffa95d8ea3465811e1fd32885858560405161062793929190612acf565b60405180910390a15050505050565b600061080073ffffffffffffffffffffffffffffffffffffffff166390702759836040518263ffffffff1660e01b81526004016106739190612bd0565b60206040518083038186803b15801561068b57600080fd5b505afa15801561069f573d6000803e3d6000fd5b505050506040513d601f19601f820116820180604052508101906106c391906125e8565b9050919050565b6106d2611aa2565b6106da611ae9565b6106e2611b28565b6106ea611b45565b61080073ffffffffffffffffffffffffffffffffffffffff166389cf7c8988886040518363ffffffff1660e01b8152600401610727929190612a46565b60a06040518083038186803b15801561073f57600080fd5b505afa158015610753573d6000803e3d6000fd5b505050506040513d601f19601f820116820180604052508101906107779190612405565b935061080073ffffffffffffffffffffffffffffffffffffffff1663a69610d188876040518363ffffffff1660e01b81526004016107b6929190612a6f565b60606040518083038186803b1580156107ce57600080fd5b505afa1580156107e2573d6000803e3d6000fd5b505050506040513d601f19601f82011682018060405250810190610806919061242e565b925061080073ffffffffffffffffffffffffffffffffffffffff1663ce513b6f886040518263ffffffff1660e01b8152600401610843919061299b565b60206040518083038186803b15801561085b57600080fd5b505afa15801561086f573d6000803e3d6000fd5b505050506040513d601f19601f820116820180604052508101906108939190612480565b915061080073ffffffffffffffffffffffffffffffffffffffff166337f980a5886040518263ffffffff1660e01b81526004016108d0919061299b565b60806040518083038186803b1580156108e857600080fd5b505afa1580156108fc573d6000803e3d6000fd5b505050506040513d601f19601f82011682018060405250810190610920919061239b565b905093509350935093565b6000838383604051602001610942939291906129df565b60405160208183030381529060405290506000610960600283611783565b905073333333333333333333333333333333333333333373ffffffffffffffffffffffffffffffffffffffff166317938e13826040518263ffffffff1660e01b81526004016109af9190612b2f565b600060405180830381600087803b1580156109c957600080fd5b505af11580156109dd573d6000803e3d6000fd5b505050507f88400b0e4de68e9187c50d1de5d5b2aaa68326abe427ae3b6659e285144012e7858585604051610a14939291906129df565b60405180910390a15050505050565b60008282604051602001610a38929190612a16565b60405160208183030381529060405290506000610a56600983611783565b905073333333333333333333333333333333333333333373ffffffffffffffffffffffffffffffffffffffff166317938e13826040518263ffffffff1660e01b8152600401610aa59190612b2f565b600060405180830381600087803b158015610abf57600080fd5b505af1158015610ad3573d6000803e3d6000fd5b505050507fbf6053c1845ca06fbf5dedd70f0c2df5ea40dc2202254c9dbc6ebf4e949dec798484604051610b08929190612a16565b60405180910390a150505050565b600061080073ffffffffffffffffffffffffffffffffffffffff1663c0f0f5ef836040518263ffffffff1660e01b8152600401610b539190612bd0565b60206040518083038186803b158015610b6b57600080fd5b505afa158015610b7f573d6000803e3d6000fd5b505050506040513d601f19601f82011682018060405250810190610ba391906125e8565b9050919050565b600080600061080073ffffffffffffffffffffffffffffffffffffffff1663a69610d187876040518363ffffffff1660e01b8152600401610bec929190612a6f565b60606040518083038186803b158015610c0457600080fd5b505afa158015610c18573d6000803e3d6000fd5b505050506040513d601f19601f82011682018060405250810190610c3c919061242e565b905080602001518160000151610c529190612e84565b91508367ffffffffffffffff168267ffffffffffffffff161015925050935093915050565b6000838383604051602001610c8e93929190612a98565b60405160208183030381529060405290506000610cac600383611783565b905073333333333333333333333333333333333333333373ffffffffffffffffffffffffffffffffffffffff166317938e13826040518263ffffffff1660e01b8152600401610cfb9190612b2f565b600060405180830381600087803b158015610d1557600080fd5b505af1158015610d29573d6000803e3d6000fd5b505050507fb03f3b9bd0640bab260775fa93bed2ef48c44d40d0049b97a7054020af2a134e858585604051610d6093929190612a98565b60405180910390a15050505050565b60008060008061080073ffffffffffffffffffffffffffffffffffffffff166389cf7c8987876040518363ffffffff1660e01b8152600401610db2929190612a46565b60a06040518083038186803b158015610dca57600080fd5b505afa158015610dde573d6000803e3d6000fd5b505050506040513d601f19601f82011682018060405250810190610e029190612405565b9050806000015181602001516000935093509350509250925092565b610e3183600183856000600360006111f6565b505050565b60008061080073ffffffffffffffffffffffffffffffffffffffff1663ee1b5af16000856040518363ffffffff1660e01b8152600401610e779291906129b6565b604080518083038186803b158015610e8e57600080fd5b505afa158015610ea2573d6000803e3d6000fd5b505050506040513d601f19601f82011682018060405250810190610ec69190612457565b90508060000151915050919050565b610ee883600083856000600360006111f6565b505050565b600061080073ffffffffffffffffffffffffffffffffffffffff1663298c90056040518163ffffffff1660e01b815260040160206040518083038186803b158015610f3757600080fd5b505afa158015610f4b573d6000803e3d6000fd5b505050506040513d601f19601f82011682018060405250810190610f6f91906125e8565b905090565b600081604051602001610f879190612c9f565b60405160208183030381529060405290506000610fa5600483611783565b905073333333333333333333333333333333333333333373ffffffffffffffffffffffffffffffffffffffff166317938e13826040518263ffffffff1660e01b8152600401610ff49190612b2f565b600060405180830381600087803b15801561100e57600080fd5b505af1158015611022573d6000803e3d6000fd5b505050507f0641cc09e14d2f17d3c1a908ec1f8e6cd73070606ea8ad00891dce8c1a1dab71836040516110559190612c9f565b60405180910390a1505050565b6000816040516020016110759190612c9f565b60405160208183030381529060405290506000611093600583611783565b905073333333333333333333333333333333333333333373ffffffffffffffffffffffffffffffffffffffff166317938e13826040518263ffffffff1660e01b81526004016110e29190612b2f565b600060405180830381600087803b1580156110fc57600080fd5b505af1158015611110573d6000803e3d6000fd5b505050507f643b9742c8598aa24f3b7dca2d7b2f792007aff2f9bc9527e72e00932a6a80ed836040516111439190612c9f565b60405180910390a1505050565b60008061080073ffffffffffffffffffffffffffffffffffffffff1663a69610d1858563ffffffff166040518363ffffffff1660e01b8152600401611196929190612a6f565b60606040518083038186803b1580156111ae57600080fd5b505afa1580156111c2573d6000803e3d6000fd5b505050506040513d601f19601f820116820180604052508101906111e6919061242e565b9050806000015191505092915050565b6000878787878787876040516020016112159796959493929190612c30565b60405160208183030381529060405290506000611233600183611783565b905073333333333333333333333333333333333333333373ffffffffffffffffffffffffffffffffffffffff166317938e13826040518263ffffffff1660e01b81526004016112829190612b2f565b600060405180830381600087803b15801561129c57600080fd5b505af11580156112b0573d6000803e3d6000fd5b505050507f4ddc5e1c15772f2d482e66f58ba3cdcc22be65c7e6d07ead3575c3ce0873f54f898989896040516112e99493929190612beb565b60405180910390a1505050505050505050565b600080611307611b95565b61080073ffffffffffffffffffffffffffffffffffffffff1663c8eec8c6856040518263ffffffff1660e01b81526004016113429190612bd0565b60206040518083038186803b15801561135a57600080fd5b505afa15801561136e573d6000803e3d6000fd5b505050506040513d601f19601f8201168201806040525081019061139291906125e8565b925061080073ffffffffffffffffffffffffffffffffffffffff1663c0f0f5ef856040518263ffffffff1660e01b81526004016113cf9190612bd0565b60206040518083038186803b1580156113e757600080fd5b505afa1580156113fb573d6000803e3d6000fd5b505050506040513d601f19601f8201168201806040525081019061141f91906125e8565b915061080073ffffffffffffffffffffffffffffffffffffffff16634162cd32856040518263ffffffff1660e01b815260040161145c9190612bd0565b60006040518083038186803b15801561147457600080fd5b505afa9250505080156114aa57506040513d6000823e3d601f19601f820116820180604052508101906114a791906123c4565b60015b6114fd576040518060a00160405280604051806020016040528060008152508152602001600063ffffffff168152602001600060ff168152602001600060ff168152602001600015158152509050611502565b809150505b9193909250565b6000828260405160200161151e929190612cba565b6040516020818303038152906040529050600061153c600783611783565b905073333333333333333333333333333333333333333373ffffffffffffffffffffffffffffffffffffffff166317938e13826040518263ffffffff1660e01b815260040161158b9190612b2f565b600060405180830381600087803b1580156115a557600080fd5b505af11580156115b9573d6000803e3d6000fd5b505050507f1057cab8d454b00d00404f5dd914e4660824208af64067949b90982969f9be5e84846040516115ee929190612cba565b60405180910390a150505050565b60008061080073ffffffffffffffffffffffffffffffffffffffff1663bffe3486856040518263ffffffff1660e01b815260040161163a919061299b565b60006040518083038186803b15801561165257600080fd5b505afa158015611666573d6000803e3d6000fd5b505050506040513d6000823e3d601f19601f8201168201806040525081019061168f919061235a565b905060005b8151811015611776578373ffffffffffffffffffffffffffffffffffffffff168282815181106116ed577f4e487b7100000000000000000000000000000000000000000000000000000000600052603260045260246000fd5b60200260200101516000015173ffffffffffffffffffffffffffffffffffffffff1614156117635781818151811061174e577f4e487b7100000000000000000000000000000000000000000000000000000000600052603260045260246000fd5b6020026020010151602001519250505061177d565b808061176e90612faa565b915050611694565b5060009150505b92915050565b60606000825160046117959190612e2e565b67ffffffffffffffff8111156117d4577f4e487b7100000000000000000000000000000000000000000000000000000000600052604160045260246000fd5b6040519080825280601f01601f1916602001820160405280156118065781602001600182028036833780820191505090505b509050600160f81b81600081518110611848577f4e487b7100000000000000000000000000000000000000000000000000000000600052603260045260246000fd5b60200101907effffffffffffffffffffffffffffffffffffffffffffffffffffffffffffff1916908160001a905350600060f81b816001815181106118b6577f4e487b7100000000000000000000000000000000000000000000000000000000600052603260045260246000fd5b60200101907effffffffffffffffffffffffffffffffffffffffffffffffffffffffffffff1916908160001a905350600060f81b81600281518110611924577f4e487b7100000000000000000000000000000000000000000000000000000000600052603260045260246000fd5b60200101907effffffffffffffffffffffffffffffffffffffffffffffffffffffffffffff1916908160001a9053508360f81b81600381518110611991577f4e487b7100000000000000000000000000000000000000000000000000000000600052603260045260246000fd5b60200101907effffffffffffffffffffffffffffffffffffffffffffffffffffffffffffff1916908160001a90535060005b8351811015611a9757838181518110611a05577f4e487b7100000000000000000000000000000000000000000000000000000000600052603260045260246000fd5b602001015160f81c60f81b82826004611a1e9190612e2e565b81518110611a55577f4e487b7100000000000000000000000000000000000000000000000000000000600052603260045260246000fd5b60200101907effffffffffffffffffffffffffffffffffffffffffffffffffffffffffffff1916908160001a9053508080611a8f90612faa565b9150506119c3565b508091505092915050565b6040518060a00160405280600060070b8152602001600067ffffffffffffffff168152602001600060070b8152602001600063ffffffff1681526020016000151581525090565b6040518060600160405280600067ffffffffffffffff168152602001600067ffffffffffffffff168152602001600067ffffffffffffffff1681525090565b6040518060200160405280600067ffffffffffffffff1681525090565b6040518060800160405280600067ffffffffffffffff168152602001600067ffffffffffffffff168152602001600067ffffffffffffffff168152602001600067ffffffffffffffff1681525090565b6040518060a0016040528060608152602001600063ffffffff168152602001600060ff168152602001600060ff1681526020016000151581525090565b6000611be5611be084612d89565b612d58565b90508083825260208201905082856060860282011115611c0457600080fd5b60005b85811015611c345781611c1a8882611da1565b845260208401935060608301925050600181019050611c07565b5050509392505050565b6000611c51611c4c84612db5565b612d58565b905082815260208101848484011115611c6957600080fd5b611c74848285612f68565b509392505050565b6000611c8f611c8a84612db5565b612d58565b905082815260208101848484011115611ca757600080fd5b611cb2848285612f77565b509392505050565b600081359050611cc981613062565b92915050565b600081519050611cde81613062565b92915050565b600082601f830112611cf557600080fd5b8151611d05848260208601611bd2565b91505092915050565b600081359050611d1d81613079565b92915050565b600081519050611d3281613079565b92915050565b600081519050611d4781613090565b92915050565b600082601f830112611d5e57600080fd5b8135611d6e848260208601611c3e565b91505092915050565b600082601f830112611d8857600080fd5b8151611d98848260208601611c7c565b91505092915050565b600060608284031215611db357600080fd5b611dbd6060612d58565b90506000611dcd84828501611ccf565b6000830152506020611de1848285016120ea565b6020830152506040611df5848285016120ea565b60408301525092915050565b600060808284031215611e1357600080fd5b611e1d6080612d58565b90506000611e2d848285016120ea565b6000830152506020611e41848285016120ea565b6020830152506040611e55848285016120ea565b6040830152506060611e69848285016120ea565b60608301525092915050565b600060a08284031215611e8757600080fd5b611e9160a0612d58565b9050600082015167ffffffffffffffff811115611ead57600080fd5b611eb984828501611d77565b6000830152506020611ecd848285016120c0565b6020830152506040611ee184828501612114565b6040830152506060611ef584828501612114565b6060830152506080611f0984828501611d23565b60808301525092915050565b600060a08284031215611f2757600080fd5b611f3160a0612d58565b90506000611f4184828501611d38565b6000830152506020611f55848285016120ea565b6020830152506040611f6984828501611d38565b6040830152506060611f7d848285016120c0565b6060830152506080611f9184828501611d23565b60808301525092915050565b600060608284031215611faf57600080fd5b611fb96060612d58565b90506000611fc9848285016120ea565b6000830152506020611fdd848285016120ea565b6020830152506040611ff1848285016120ea565b60408301525092915050565b60006040828403121561200f57600080fd5b6120196040612d58565b90506000612029848285016120ea565b600083015250602061203d848285016120ea565b60208301525092915050565b60006020828403121561205b57600080fd5b6120656020612d58565b90506000612075848285016120ea565b60008301525092915050565b600081359050612090816130a7565b92915050565b6000813590506120a5816130be565b92915050565b6000813590506120ba816130d5565b92915050565b6000815190506120cf816130d5565b92915050565b6000813590506120e4816130ec565b92915050565b6000815190506120f9816130ec565b92915050565b60008135905061210e81613103565b92915050565b60008151905061212381613103565b92915050565b60006020828403121561213b57600080fd5b600061214984828501611cba565b91505092915050565b6000806040838503121561216557600080fd5b600061217385828601611cba565b925050602061218485828601611cba565b9150509250929050565b6000806000606084860312156121a357600080fd5b60006121b186828701611cba565b93505060206121c286828701611d0e565b92505060406121d3868287016120d5565b9150509250925092565b600080604083850312156121f057600080fd5b60006121fe85828601611cba565b925050602083013567ffffffffffffffff81111561221b57600080fd5b61222785828601611d4d565b9150509250929050565b60008060006060848603121561224657600080fd5b600061225486828701611cba565b935050602061226586828701612096565b9250506040612276868287016120d5565b9150509250925092565b6000806040838503121561229357600080fd5b60006122a185828601611cba565b92505060206122b2858286016120ab565b9150509250929050565b6000806000606084860312156122d157600080fd5b60006122df86828701611cba565b93505060206122f0868287016120d5565b925050604061230186828701611d0e565b9150509250925092565b60008060006060848603121561232057600080fd5b600061232e86828701611cba565b935050602061233f868287016120d5565b9250506040612350868287016120d5565b9150509250925092565b60006020828403121561236c57600080fd5b600082015167ffffffffffffffff81111561238657600080fd5b61239284828501611ce4565b91505092915050565b6000608082840312156123ad57600080fd5b60006123bb84828501611e01565b91505092915050565b6000602082840312156123d657600080fd5b600082015167ffffffffffffffff8111156123f057600080fd5b6123fc84828501611e75565b91505092915050565b600060a0828403121561241757600080fd5b600061242584828501611f15565b91505092915050565b60006060828403121561244057600080fd5b600061244e84828501611f9d565b91505092915050565b60006040828403121561246957600080fd5b600061247784828501611ffd565b91505092915050565b60006020828403121561249257600080fd5b60006124a084828501612049565b91505092915050565b6000602082840312156124bb57600080fd5b60006124c9848285016120ab565b91505092915050565b600080600080600080600060e0888a0312156124ed57600080fd5b60006124fb8a828b016120ab565b975050602061250c8a828b01611d0e565b965050604061251d8a828b016120d5565b955050606061252e8a828b016120d5565b945050608061253f8a828b01611d0e565b93505060a06125508a828b016120ff565b92505060c06125618a828b01612081565b91505092959891949750929550565b60008060006060848603121561258557600080fd5b6000612593868287016120ab565b93505060206125a4868287016120d5565b92505060406125b5868287016120d5565b9150509250925092565b6000602082840312156125d157600080fd5b60006125df848285016120d5565b91505092915050565b6000602082840312156125fa57600080fd5b6000612608848285016120ea565b91505092915050565b6000806040838503121561262457600080fd5b6000612632858286016120d5565b925050602061264385828601611d0e565b9150509250929050565b60008060006060848603121561266257600080fd5b6000612670868287016120d5565b9350506020612681868287016120ff565b9250506040612692868287016120d5565b9150509250925092565b6126a581612eb8565b82525050565b6126b481612eca565b82525050565b6126c381612eca565b82525050565b60006126d482612de5565b6126de8185612dfb565b93506126ee818560208601612f77565b6126f781613051565b840191505092915050565b61270b81612ed6565b82525050565b61271a81612ed6565b82525050565b600061272b82612df0565b6127358185612e0c565b9350612745818560208601612f77565b61274e81613051565b840191505092915050565b600061276482612df0565b61276e8185612e1d565b935061277e818560208601612f77565b61278781613051565b840191505092915050565b6080820160008201516127a8600085018261295f565b5060208201516127bb602085018261295f565b5060408201516127ce604085018261295f565b5060608201516127e1606085018261295f565b50505050565b600060a08301600083015184820360008601526128048282612720565b91505060208301516128196020860182612941565b50604083015161282c604086018261297d565b50606083015161283f606086018261297d565b50608083015161285260808601826126ab565b508091505092915050565b60a0820160008201516128736000850182612702565b506020820151612886602085018261295f565b5060408201516128996040850182612702565b5060608201516128ac6060850182612941565b5060808201516128bf60808501826126ab565b50505050565b6060820160008201516128db600085018261295f565b5060208201516128ee602085018261295f565b506040820151612901604085018261295f565b50505050565b60208201600082015161291d600085018261295f565b50505050565b61292c81612ee3565b82525050565b61293b81612eff565b82525050565b61294a81612f37565b82525050565b61295981612f37565b82525050565b61296881612f47565b82525050565b61297781612f47565b82525050565b61298681612f5b565b82525050565b61299581612f5b565b82525050565b60006020820190506129b0600083018461269c565b92915050565b60006040820190506129cb600083018561269c565b6129d8602083018461269c565b9392505050565b60006060820190506129f4600083018661269c565b612a0160208301856126ba565b612a0e604083018461296e565b949350505050565b6000604082019050612a2b600083018561269c565b8181036020830152612a3d8184612759565b90509392505050565b6000604082019050612a5b600083018561269c565b612a686020830184612932565b9392505050565b6000604082019050612a84600083018561269c565b612a91602083018461296e565b9392505050565b6000606082019050612aad600083018661269c565b612aba602083018561296e565b612ac760408301846126ba565b949350505050565b6000606082019050612ae4600083018661269c565b612af1602083018561296e565b612afe604083018461296e565b949350505050565b6000604082019050612b1b60008301856126ba565b612b28602083018461296e565b9392505050565b60006020820190508181036000830152612b4981846126c9565b905092915050565b6000606082019050612b666000830186612711565b612b73602083018561296e565b612b80604083018461296e565b949350505050565b60006101a082019050612b9e600083018761285d565b612bab60a08301866128c5565b612bb9610100830185612907565b612bc7610120830184612792565b95945050505050565b6000602082019050612be56000830184612950565b92915050565b6000608082019050612c006000830187612950565b612c0d60208301866126ba565b612c1a604083018561296e565b612c27606083018461296e565b95945050505050565b600060e082019050612c45600083018a612950565b612c5260208301896126ba565b612c5f604083018861296e565b612c6c606083018761296e565b612c7960808301866126ba565b612c8660a083018561298c565b612c9360c0830184612923565b98975050505050505050565b6000602082019050612cb4600083018461296e565b92915050565b6000604082019050612ccf600083018561296e565b612cdc60208301846126ba565b9392505050565b6000606082019050612cf8600083018661296e565b612d05602083018561296e565b8181036040830152612d1781846127e7565b9050949350505050565b6000606082019050612d36600083018661296e565b612d43602083018561298c565b612d50604083018461296e565b949350505050565b6000604051905081810181811067ffffffffffffffff82111715612d7f57612d7e613022565b5b8060405250919050565b600067ffffffffffffffff821115612da457612da3613022565b5b602082029050602081019050919050565b600067ffffffffffffffff821115612dd057612dcf613022565b5b601f19601f8301169050602081019050919050565b600081519050919050565b600081519050919050565b600082825260208201905092915050565b600082825260208201905092915050565b600082825260208201905092915050565b6000612e3982612f2d565b9150612e4483612f2d565b9250827fffffffffffffffffffffffffffffffffffffffffffffffffffffffffffffffff03821115612e7957612e78612ff3565b5b828201905092915050565b6000612e8f82612f47565b9150612e9a83612f47565b925082821015612ead57612eac612ff3565b5b828203905092915050565b6000612ec382612f0d565b9050919050565b60008115159050919050565b60008160070b9050919050565b60006fffffffffffffffffffffffffffffffff82169050919050565b600061ffff82169050919050565b600073ffffffffffffffffffffffffffffffffffffffff82169050919050565b6000819050919050565b600063ffffffff82169050919050565b600067ffffffffffffffff82169050919050565b600060ff82169050919050565b82818337600083830152505050565b60005b83811015612f95578082015181840152602081019050612f7a565b83811115612fa4576000848401525b50505050565b6000612fb582612f2d565b91507fffffffffffffffffffffffffffffffffffffffffffffffffffffffffffffffff821415612fe857612fe7612ff3565b5b600182019050919050565b7f4e487b7100000000000000000000000000000000000000000000000000000000600052601160045260246000fd5b7f4e487b7100000000000000000000000000000000000000000000000000000000600052604160045260246000fd5b6000601f19601f8301169050919050565b61306b81612eb8565b811461307657600080fd5b50565b61308281612eca565b811461308d57600080fd5b50565b61309981612ed6565b81146130a457600080fd5b50565b6130b081612ee3565b81146130bb57600080fd5b50565b6130c781612eff565b81146130d257600080fd5b50565b6130de81612f37565b81146130e957600080fd5b50565b6130f581612f47565b811461310057600080fd5b50565b61310c81612f5b565b811461311757600080fd5b5056fea26469706673582212205823c9f7bff4c0d7af13e340f1c2076cdbb65ae0e27f8f624d6062c74516458a64736f6c63430008000033","linkReferences":{}},"methodIdentifiers":{"addApiWallet(address,string)":"2b28b28f","checkSufficientBalance(address,uint64,uint64)":"45a36ddb","finalizeEvmContract(uint64,uint8,uint64)":"05fc9ca9","getAccountInfo(address,uint16,uint64)":"2621c89b","getL1BlockNumber()":"b9b3efe9","getMarketData(uint32)":"da7a6e8c","getPerpOraclePrice(uint32)":"44761705","getPerpPosition(address,uint32)":"6338049a","getSpotBalance(address,uint32)":"c6270a79","getSpotOraclePrice(uint32)":"1ed4721f","getStakingDelegation(address,address)":"f309cbbc","getVaultEquity(address)":"7687a4b0","marketBuy(uint32,uint64,uint64)":"690d0f78","marketSell(uint32,uint64,uint64)":"88ea65de","placeLimitOrder(uint32,bool,uint64,uint64,bool,uint8,uint128)":"c99d682f","spotSend(address,uint64,uint64)":"152986af","stakingDeposit(uint64)":"bcaba157","stakingWithdraw(uint64)":"be00824a","tokenDelegate(address,uint64,bool)":"5bb43cff","usdClassTransfer(uint64,bool)":"dfccd8e5","vaultTransfer(address,bool,uint64)":"2a2ab9d6"},"id":1}