{"abi":[{"type":"function","name":"delegations","inputs":[{"name":"user","type":"address","internalType":"address"}],"outputs":[{"name":"","type":"tuple[]","internalType":"struct L1Read.Delegation[]","components":[{"name":"validator","type":"address","internalType":"address"},{"name":"amount","type":"uint64","internalType":"uint64"},{"name":"lockedUntilTimestamp","type":"uint64","internalType":"uint64"}]}],"stateMutability":"view"},{"type":"function","name":"delegatorSummary","inputs":[{"name":"user","type":"address","internalType":"address"}],"outputs":[{"name":"","type":"tuple","internalType":"struct L1Read.DelegatorSummary","components":[{"name":"delegated","type":"uint64","internalType":"uint64"},{"name":"undelegated","type":"uint64","internalType":"uint64"},{"name":"totalPendingWithdrawal","type":"uint64","internalType":"uint64"},{"name":"nPendingWithdrawals","type":"uint64","internalType":"uint64"}]}],"stateMutability":"view"},{"type":"function","name":"l1BlockNumber","inputs":[],"outputs":[{"name":"","type":"uint64","internalType":"uint64"}],"stateMutability":"view"},{"type":"function","name":"markPx","inputs":[{"name":"index","type":"uint32","internalType":"uint32"}],"outputs":[{"name":"","type":"uint64","internalType":"uint64"}],"stateMutability":"view"},{"type":"function","name":"oraclePx","inputs":[{"name":"index","type":"uint32","internalType":"uint32"}],"outputs":[{"name":"","type":"uint64","internalType":"uint64"}],"stateMutability":"view"},{"type":"function","name":"perpAssetInfo","inputs":[{"name":"perp","type":"uint32","internalType":"uint32"}],"outputs":[{"name":"","type":"tuple","internalType":"struct L1Read.PerpAssetInfo","components":[{"name":"coin","type":"string","internalType":"string"},{"name":"marginTableId","type":"uint32","internalType":"uint32"},{"name":"szDecimals","type":"uint8","internalType":"uint8"},{"name":"maxLeverage","type":"uint8","internalType":"uint8"},{"name":"onlyIsolated","type":"bool","internalType":"bool"}]}],"stateMutability":"view"},{"type":"function","name":"position","inputs":[{"name":"user","type":"address","internalType":"address"},{"name":"perp","type":"uint16","internalType":"uint16"}],"outputs":[{"name":"","type":"tuple","internalType":"struct L1Read.Position","components":[{"name":"szi","type":"int64","internalType":"int64"},{"name":"entryNtl","type":"uint64","internalType":"uint64"},{"name":"isolatedRawUsd","type":"int64","internalType":"int64"},{"name":"leverage","type":"uint32","internalType":"uint32"},{"name":"isIsolated","type":"bool","internalType":"bool"}]}],"stateMutability":"view"},{"type":"function","name":"sendAction","inputs":[{"name":"data","type":"bytes","internalType":"bytes"}],"outputs":[],"stateMutability":"nonpayable"},{"type":"function","name":"spotBalance","inputs":[{"name":"user","type":"address","internalType":"address"},{"name":"token","type":"uint64","internalType":"uint64"}],"outputs":[{"name":"","type":"tuple","internalType":"struct L1Read.SpotBalance","components":[{"name":"total","type":"uint64","internalType":"uint64"},{"name":"hold","type":"uint64","internalType":"uint64"},{"name":"entryNtl","type":"uint64","internalType":"uint64"}]}],"stateMutability":"view"},{"type":"function","name":"spotInfo","inputs":[{"name":"spot","type":"uint32","internalType":"uint32"}],"outputs":[{"name":"","type":"tuple","internalType":"struct L1Read.SpotInfo","components":[{"name":"name","type":"string","internalType":"string"},{"name":"tokens","type":"uint64[2]","internalType":"uint64[2]"}]}],"stateMutability":"view"},{"type":"function","name":"spotPx","inputs":[{"name":"index","type":"uint32","internalType":"uint32"}],"outputs":[{"name":"","type":"uint64","internalType":"uint64"}],"stateMutability":"view"},{"type":"function","name":"tokenInfo","inputs":[{"name":"token","type":"uint32","internalType":"uint32"}],"outputs":[{"name":"","type":"tuple","internalType":"struct L1Read.TokenInfo","components":[{"name":"name","type":"string","internalType":"string"},{"name":"spots","type":"uint64[]","internalType":"uint64[]"},{"name":"deployerTradingFeeShare","type":"uint64","internalType":"uint64"},{"name":"deployer","type":"address","internalType":"address"},{"name":"evmContract","type":"address","internalType":"address"},{"name":"szDecimals","type":"uint8","internalType":"uint8"},{"name":"weiDecimals","type":"uint8","internalType":"uint8"},{"name":"evmExtraWeiDecimals","type":"int8","internalType":"int8"}]}],"stateMutability":"view"},{"type":"function","name":"tokenSupply","inputs":[{"name":"token","type":"uint32","internalType":"uint32"}],"outputs":[{"name":"","type":"tuple","internalType":"struct L1Read.TokenSupply","components":[{"name":"maxSupply","type":"uint64","internalType":"uint64"},{"name":"totalSupply","type":"uint64","internalType":"uint64"},{"name":"circulatingSupply","type":"uint64","internalType":"uint64"},{"name":"futureEmissions","type":"uint64","internalType":"uint64"},{"name":"nonCirculatingUserBalances","type":"tuple[]","internalType":"struct L1Read.UserBalance[]","components":[{"name":"user","type":"address","internalType":"address"},{"name":"balance","type":"uint64","internalType":"uint64"}]}]}],"stateMutability":"view"},{"type":"function","name":"userVaultEquity","inputs":[{"name":"user","type":"address","internalType":"address"},{"name":"vault","type":"address","internalType":"address"}],"outputs":[{"name":"","type":"tuple","internalType":"struct L1Read.UserVaultEquity","components":[{"name":"equity","type":"uint64","internalType":"uint64"},{"name":"lockedUntilTimestamp","type":"uint64","internalType":"uint64"}]}],"stateMutability":"view"},{"type":"function","name":"withdrawable","inputs":[{"name":"user","type":"address","internalType":"address"}],"outputs":[{"name":"","type":"tuple","internalType":"struct L1Read.Withdrawable","components":[{"name":"withdrawable","type":"uint64","internalType":"uint64"}]}],"stateMutability":"view"},{"type":"event","name":"Action","inputs":[{"name":"user","type":"address","indexed":true,"internalType":"address"},{"name":"data","type":"bytes","indexed":false,"internalType":"bytes"}],"anonymous":false}],"bytecode":{"object":"0x608060405234801561001057600080fd5b5061362f806100206000396000f3fe608060405234801561001057600080fd5b50600436106100f55760003560e01c8063b6dff0b511610097578063c8eec8c611610066578063c8eec8c6146102f8578063ce513b6f14610328578063df42f68f14610358578063ee1b5af114610374576100f5565b8063b6dff0b514610238578063be06f7ac14610268578063bffe348614610298578063c0f0f5ef146102c8576100f5565b806368fb1109116100d357806368fb11091461017857806389cf7c89146101a857806390702759146101d8578063a69610d114610208576100f5565b8063298c9005146100fa57806337f980a5146101185780634162cd3214610148575b600080fd5b6101026103a4565b60405161010f9190611420565b60405180910390f35b610132600480360381019061012d91906114ad565b610488565b60405161013f919061153e565b60405180910390f35b610162600480360381019061015d9190611595565b610580565b60405161016f9190611717565b60405180910390f35b610192600480360381019061018d9190611595565b610678565b60405161019f91906118ca565b60405180910390f35b6101c260048036038101906101bd9190611926565b610770565b6040516101cf91906119ea565b60405180910390f35b6101f260048036038101906101ed9190611595565b61086b565b6040516101ff9190611420565b60405180910390f35b610222600480360381019061021d9190611a31565b61095c565b60405161022f9190611ab3565b60405180910390f35b610252600480360381019061024d9190611595565b610a57565b60405161025f9190611b8f565b60405180910390f35b610282600480360381019061027d9190611595565b610b4f565b60405161028f9190611d05565b60405180910390f35b6102b260048036038101906102ad91906114ad565b610c47565b6040516102bf9190611e18565b60405180910390f35b6102e260048036038101906102dd9190611595565b610d39565b6040516102ef9190611420565b60405180910390f35b610312600480360381019061030d9190611595565b610e2a565b60405161031f9190611420565b60405180910390f35b610342600480360381019061033d91906114ad565b610f1b565b60405161034f9190611e56565b60405180910390f35b610372600480360381019061036d9190611ed6565b611013565b005b61038e60048036038101906103899190611f23565b611088565b60405161039b9190611f92565b60405180910390f35b600080606061080973ffffffffffffffffffffffffffffffffffffffff166040516020016040516020818303038152906040526040516103e49190611ff4565b600060405180830381855afa9150503d806000811461041f576040519150601f19603f3d011682016040523d82523d6000602084013e610424565b606091505b5080925081935050508161046d576040517f08c379a00000000000000000000000000000000000000000000000000000000081526004016104649061208e565b60405180910390fd5b8080602001905181019061048191906120c3565b9250505090565b610490611183565b6000606061080573ffffffffffffffffffffffffffffffffffffffff16846040516020016104be91906120ff565b6040516020818303038152906040526040516104da9190611ff4565b600060405180830381855afa9150503d8060008114610515576040519150601f19603f3d011682016040523d82523d6000602084013e61051a565b606091505b50809250819350505081610563576040517f08c379a000000000000000000000000000000000000000000000000000000000815260040161055a9061218c565b60405180910390fd5b8080602001905181019061057791906122a9565b92505050919050565b6105886111d3565b6000606061080a73ffffffffffffffffffffffffffffffffffffffff16846040516020016105b691906122e5565b6040516020818303038152906040526040516105d29190611ff4565b600060405180830381855afa9150503d806000811461060d576040519150601f19603f3d011682016040523d82523d6000602084013e610612565b606091505b5080925081935050508161065b576040517f08c379a000000000000000000000000000000000000000000000000000000000815260040161065290612372565b60405180910390fd5b8080602001905181019061066f919061254d565b92505050919050565b610680611210565b6000606061080c73ffffffffffffffffffffffffffffffffffffffff16846040516020016106ae91906122e5565b6040516020818303038152906040526040516106ca9190611ff4565b600060405180830381855afa9150503d8060008114610705576040519150601f19603f3d011682016040523d82523d6000602084013e61070a565b606091505b50809250819350505081610753576040517f08c379a000000000000000000000000000000000000000000000000000000000815260040161074a906125e2565b60405180910390fd5b808060200190518101906107679190612808565b92505050919050565b610778611293565b6000606061080073ffffffffffffffffffffffffffffffffffffffff1685856040516020016107a8929190612860565b6040516020818303038152906040526040516107c49190611ff4565b600060405180830381855afa9150503d80600081146107ff576040519150601f19603f3d011682016040523d82523d6000602084013e610804565b606091505b5080925081935050508161084d576040517f08c379a0000000000000000000000000000000000000000000000000000000008152600401610844906128d5565b60405180910390fd5b8080602001905181019061086191906129ad565b9250505092915050565b600080606061080873ffffffffffffffffffffffffffffffffffffffff168460405160200161089a91906122e5565b6040516020818303038152906040526040516108b69190611ff4565b600060405180830381855afa9150503d80600081146108f1576040519150601f19603f3d011682016040523d82523d6000602084013e6108f6565b606091505b5080925081935050508161093f576040517f08c379a000000000000000000000000000000000000000000000000000000000815260040161093690612a26565b60405180910390fd5b8080602001905181019061095391906120c3565b92505050919050565b6109646112da565b6000606061080173ffffffffffffffffffffffffffffffffffffffff168585604051602001610994929190612a46565b6040516020818303038152906040526040516109b09190611ff4565b600060405180830381855afa9150503d80600081146109eb576040519150601f19603f3d011682016040523d82523d6000602084013e6109f0565b606091505b50809250819350505081610a39576040517f08c379a0000000000000000000000000000000000000000000000000000000008152600401610a3090612ae1565b60405180910390fd5b80806020019051810190610a4d9190612b65565b9250505092915050565b610a5f611319565b6000606061080b73ffffffffffffffffffffffffffffffffffffffff1684604051602001610a8d91906122e5565b604051602081830303815290604052604051610aa99190611ff4565b600060405180830381855afa9150503d8060008114610ae4576040519150601f19603f3d011682016040523d82523d6000602084013e610ae9565b606091505b50809250819350505081610b32576040517f08c379a0000000000000000000000000000000000000000000000000000000008152600401610b2990612bde565b60405180910390fd5b80806020019051810190610b469190612d1b565b92505050919050565b610b57611339565b6000606061080d73ffffffffffffffffffffffffffffffffffffffff1684604051602001610b8591906122e5565b604051602081830303815290604052604051610ba19190611ff4565b600060405180830381855afa9150503d8060008114610bdc576040519150601f19603f3d011682016040523d82523d6000602084013e610be1565b606091505b50809250819350505081610c2a576040517f08c379a0000000000000000000000000000000000000000000000000000000008152600401610c2190612dd6565b60405180910390fd5b80806020019051810190610c3e9190612fb1565b92505050919050565b60606000606061080473ffffffffffffffffffffffffffffffffffffffff1684604051602001610c7791906120ff565b604051602081830303815290604052604051610c939190611ff4565b600060405180830381855afa9150503d8060008114610cce576040519150601f19603f3d011682016040523d82523d6000602084013e610cd3565b606091505b50809250819350505081610d1c576040517f08c379a0000000000000000000000000000000000000000000000000000000008152600401610d139061306c565b60405180910390fd5b80806020019051810190610d3091906131b3565b92505050919050565b600080606061080773ffffffffffffffffffffffffffffffffffffffff1684604051602001610d6891906122e5565b604051602081830303815290604052604051610d849190611ff4565b600060405180830381855afa9150503d8060008114610dbf576040519150601f19603f3d011682016040523d82523d6000602084013e610dc4565b606091505b50809250819350505081610e0d576040517f08c379a0000000000000000000000000000000000000000000000000000000008152600401610e0490613248565b60405180910390fd5b80806020019051810190610e2191906120c3565b92505050919050565b600080606061080673ffffffffffffffffffffffffffffffffffffffff1684604051602001610e5991906122e5565b604051602081830303815290604052604051610e759190611ff4565b600060405180830381855afa9150503d8060008114610eb0576040519150601f19603f3d011682016040523d82523d6000602084013e610eb5565b606091505b50809250819350505081610efe576040517f08c379a0000000000000000000000000000000000000000000000000000000008152600401610ef5906132b4565b60405180910390fd5b80806020019051810190610f1291906120c3565b92505050919050565b610f23611390565b6000606061080373ffffffffffffffffffffffffffffffffffffffff1684604051602001610f5191906120ff565b604051602081830303815290604052604051610f6d9190611ff4565b600060405180830381855afa9150503d8060008114610fa8576040519150601f19603f3d011682016040523d82523d6000602084013e610fad565b606091505b50809250819350505081610ff6576040517f08c379a0000000000000000000000000000000000000000000000000000000008152600401610fed90613346565b60405180910390fd5b8080602001905181019061100a91906133a2565b92505050919050565b60005b61019081101561103357808061102b90613408565b915050611016565b503373ffffffffffffffffffffffffffffffffffffffff167f8ecd83fcb4f5036cf50d19e56f64c94fa78da95d26540886ada394222bbbbda2838360405161107c92919061349d565b60405180910390a25050565b6110906113ad565b6000606061080273ffffffffffffffffffffffffffffffffffffffff1685856040516020016110c09291906134c1565b6040516020818303038152906040526040516110dc9190611ff4565b600060405180830381855afa9150503d8060008114611117576040519150601f19603f3d011682016040523d82523d6000602084013e61111c565b606091505b50809250819350505081611165576040517f08c379a000000000000000000000000000000000000000000000000000000000815260040161115c9061355c565b60405180910390fd5b8080602001905181019061117991906135cc565b9250505092915050565b6040518060800160405280600067ffffffffffffffff168152602001600067ffffffffffffffff168152602001600067ffffffffffffffff168152602001600067ffffffffffffffff1681525090565b6040518060a0016040528060608152602001600063ffffffff168152602001600060ff168152602001600060ff1681526020016000151581525090565b6040518061010001604052806060815260200160608152602001600067ffffffffffffffff168152602001600073ffffffffffffffffffffffffffffffffffffffff168152602001600073ffffffffffffffffffffffffffffffffffffffff168152602001600060ff168152602001600060ff1681526020016000800b81525090565b6040518060a00160405280600060070b8152602001600067ffffffffffffffff168152602001600060070b8152602001600063ffffffff1681526020016000151581525090565b6040518060600160405280600067ffffffffffffffff168152602001600067ffffffffffffffff168152602001600067ffffffffffffffff1681525090565b6040518060400160405280606081526020016113336113db565b81525090565b6040518060a00160405280600067ffffffffffffffff168152602001600067ffffffffffffffff168152602001600067ffffffffffffffff168152602001600067ffffffffffffffff168152602001606081525090565b6040518060200160405280600067ffffffffffffffff1681525090565b6040518060400160405280600067ffffffffffffffff168152602001600067ffffffffffffffff1681525090565b6040518060400160405280600290602082028036833780820191505090505090565b600067ffffffffffffffff82169050919050565b61141a816113fd565b82525050565b60006020820190506114356000830184611411565b92915050565b6000604051905090565b600080fd5b600080fd5b600073ffffffffffffffffffffffffffffffffffffffff82169050919050565b600061147a8261144f565b9050919050565b61148a8161146f565b811461149557600080fd5b50565b6000813590506114a781611481565b92915050565b6000602082840312156114c3576114c2611445565b5b60006114d184828501611498565b91505092915050565b6114e3816113fd565b82525050565b6080820160008201516114ff60008501826114da565b50602082015161151260208501826114da565b50604082015161152560408501826114da565b50606082015161153860608501826114da565b50505050565b600060808201905061155360008301846114e9565b92915050565b600063ffffffff82169050919050565b61157281611559565b811461157d57600080fd5b50565b60008135905061158f81611569565b92915050565b6000602082840312156115ab576115aa611445565b5b60006115b984828501611580565b91505092915050565b600081519050919050565b600082825260208201905092915050565b60005b838110156115fc5780820151818401526020810190506115e1565b8381111561160b576000848401525b50505050565b6000601f19601f8301169050919050565b600061162d826115c2565b61163781856115cd565b93506116478185602086016115de565b61165081611611565b840191505092915050565b61166481611559565b82525050565b600060ff82169050919050565b6116808161166a565b82525050565b60008115159050919050565b61169b81611686565b82525050565b600060a08301600083015184820360008601526116be8282611622565b91505060208301516116d3602086018261165b565b5060408301516116e66040860182611677565b5060608301516116f96060860182611677565b50608083015161170c6080860182611692565b508091505092915050565b6000602082019050818103600083015261173181846116a1565b905092915050565b600081519050919050565b600082825260208201905092915050565b6000819050602082019050919050565b600061177183836114da565b60208301905092915050565b6000602082019050919050565b600061179582611739565b61179f8185611744565b93506117aa83611755565b8060005b838110156117db5781516117c28882611765565b97506117cd8361177d565b9250506001810190506117ae565b5085935050505092915050565b6117f18161146f565b82525050565b60008160000b9050919050565b61180d816117f7565b82525050565b60006101008301600083015184820360008601526118318282611622565b9150506020830151848203602086015261184b828261178a565b915050604083015161186060408601826114da565b50606083015161187360608601826117e8565b50608083015161188660808601826117e8565b5060a083015161189960a0860182611677565b5060c08301516118ac60c0860182611677565b5060e08301516118bf60e0860182611804565b508091505092915050565b600060208201905081810360008301526118e48184611813565b905092915050565b600061ffff82169050919050565b611903816118ec565b811461190e57600080fd5b50565b600081359050611920816118fa565b92915050565b6000806040838503121561193d5761193c611445565b5b600061194b85828601611498565b925050602061195c85828601611911565b9150509250929050565b60008160070b9050919050565b61197c81611966565b82525050565b60a0820160008201516119986000850182611973565b5060208201516119ab60208501826114da565b5060408201516119be6040850182611973565b5060608201516119d1606085018261165b565b5060808201516119e46080850182611692565b50505050565b600060a0820190506119ff6000830184611982565b92915050565b611a0e816113fd565b8114611a1957600080fd5b50565b600081359050611a2b81611a05565b92915050565b60008060408385031215611a4857611a47611445565b5b6000611a5685828601611498565b9250506020611a6785828601611a1c565b9150509250929050565b606082016000820151611a8760008501826114da565b506020820151611a9a60208501826114da565b506040820151611aad60408501826114da565b50505050565b6000606082019050611ac86000830184611a71565b92915050565b600060029050919050565b600081905092915050565b6000819050919050565b6000602082019050919050565b611b0481611ace565b611b0e8184611ad9565b9250611b1982611ae4565b8060005b83811015611b4a578151611b318782611765565b9650611b3c83611aee565b925050600181019050611b1d565b505050505050565b60006060830160008301518482036000860152611b6f8282611622565b9150506020830151611b846020860182611afb565b508091505092915050565b60006020820190508181036000830152611ba98184611b52565b905092915050565b600081519050919050565b600082825260208201905092915050565b6000819050602082019050919050565b604082016000820151611bf360008501826117e8565b506020820151611c0660208501826114da565b50505050565b6000611c188383611bdd565b60408301905092915050565b6000602082019050919050565b6000611c3c82611bb1565b611c468185611bbc565b9350611c5183611bcd565b8060005b83811015611c82578151611c698882611c0c565b9750611c7483611c24565b925050600181019050611c55565b5085935050505092915050565b600060a083016000830151611ca760008601826114da565b506020830151611cba60208601826114da565b506040830151611ccd60408601826114da565b506060830151611ce060608601826114da565b5060808301518482036080860152611cf88282611c31565b9150508091505092915050565b60006020820190508181036000830152611d1f8184611c8f565b905092915050565b600081519050919050565b600082825260208201905092915050565b6000819050602082019050919050565b606082016000820151611d6960008501826117e8565b506020820151611d7c60208501826114da565b506040820151611d8f60408501826114da565b50505050565b6000611da18383611d53565b60608301905092915050565b6000602082019050919050565b6000611dc582611d27565b611dcf8185611d32565b9350611dda83611d43565b8060005b83811015611e0b578151611df28882611d95565b9750611dfd83611dad565b925050600181019050611dde565b5085935050505092915050565b60006020820190508181036000830152611e328184611dba565b905092915050565b602082016000820151611e5060008501826114da565b50505050565b6000602082019050611e6b6000830184611e3a565b92915050565b600080fd5b600080fd5b600080fd5b60008083601f840112611e9657611e95611e71565b5b8235905067ffffffffffffffff811115611eb357611eb2611e76565b5b602083019150836001820283011115611ecf57611ece611e7b565b5b9250929050565b60008060208385031215611eed57611eec611445565b5b600083013567ffffffffffffffff811115611f0b57611f0a61144a565b5b611f1785828601611e80565b92509250509250929050565b60008060408385031215611f3a57611f39611445565b5b6000611f4885828601611498565b9250506020611f5985828601611498565b9150509250929050565b604082016000820151611f7960008501826114da565b506020820151611f8c60208501826114da565b50505050565b6000604082019050611fa76000830184611f63565b92915050565b600081519050919050565b600081905092915050565b6000611fce82611fad565b611fd88185611fb8565b9350611fe88185602086016115de565b80840191505092915050565b60006120008284611fc3565b915081905092915050565b600082825260208201905092915050565b7f4c31426c6f636b4e756d62657220707265636f6d70696c652063616c6c20666160008201527f696c656400000000000000000000000000000000000000000000000000000000602082015250565b600061207860248361200b565b91506120838261201c565b604082019050919050565b600060208201905081810360008301526120a78161206b565b9050919050565b6000815190506120bd81611a05565b92915050565b6000602082840312156120d9576120d8611445565b5b60006120e7848285016120ae565b91505092915050565b6120f98161146f565b82525050565b600060208201905061211460008301846120f0565b92915050565b7f44656c656761746f727953756d6d61727920707265636f6d70696c652063616c60008201527f6c206661696c6564000000000000000000000000000000000000000000000000602082015250565b600061217660288361200b565b91506121818261211a565b604082019050919050565b600060208201905081810360008301526121a581612169565b9050919050565b600080fd5b7f4e487b7100000000000000000000000000000000000000000000000000000000600052604160045260246000fd5b6121e982611611565b810181811067ffffffffffffffff82111715612208576122076121b1565b5b80604052505050565b600061221b61143b565b905061222782826121e0565b919050565b600080fd5b600060808284031215612247576122466121ac565b5b6122516080612211565b90506000612261848285016120ae565b6000830152506020612275848285016120ae565b6020830152506040612289848285016120ae565b604083015250606061229d848285016120ae565b60608301525092915050565b6000608082840312156122bf576122be611445565b5b60006122cd84828501612231565b91505092915050565b6122df81611559565b82525050565b60006020820190506122fa60008301846122d6565b92915050565b7f506572704173736574496e666f20707265636f6d70696c652063616c6c20666160008201527f696c656400000000000000000000000000000000000000000000000000000000602082015250565b600061235c60248361200b565b915061236782612300565b604082019050919050565b6000602082019050818103600083015261238b8161234f565b9050919050565b600080fd5b600067ffffffffffffffff8211156123b2576123b16121b1565b5b6123bb82611611565b9050602081019050919050565b60006123db6123d684612397565b612211565b9050828152602081018484840111156123f7576123f6612392565b5b6124028482856115de565b509392505050565b600082601f83011261241f5761241e611e71565b5b815161242f8482602086016123c8565b91505092915050565b60008151905061244781611569565b92915050565b6124568161166a565b811461246157600080fd5b50565b6000815190506124738161244d565b92915050565b61248281611686565b811461248d57600080fd5b50565b60008151905061249f81612479565b92915050565b600060a082840312156124bb576124ba6121ac565b5b6124c560a0612211565b9050600082015167ffffffffffffffff8111156124e5576124e461222c565b5b6124f18482850161240a565b600083015250602061250584828501612438565b602083015250604061251984828501612464565b604083015250606061252d84828501612464565b606083015250608061254184828501612490565b60808301525092915050565b60006020828403121561256357612562611445565b5b600082015167ffffffffffffffff8111156125815761258061144a565b5b61258d848285016124a5565b91505092915050565b7f546f6b656e496e666f20707265636f6d70696c652063616c6c206661696c6564600082015250565b60006125cc60208361200b565b91506125d782612596565b602082019050919050565b600060208201905081810360008301526125fb816125bf565b9050919050565b600067ffffffffffffffff82111561261d5761261c6121b1565b5b602082029050602081019050919050565b600061264161263c84612602565b612211565b9050808382526020820190506020840283018581111561266457612663611e7b565b5b835b8181101561268d578061267988826120ae565b845260208401935050602081019050612666565b5050509392505050565b600082601f8301126126ac576126ab611e71565b5b81516126bc84826020860161262e565b91505092915050565b6000815190506126d481611481565b92915050565b6126e3816117f7565b81146126ee57600080fd5b50565b600081519050612700816126da565b92915050565b6000610100828403121561271d5761271c6121ac565b5b612728610100612211565b9050600082015167ffffffffffffffff8111156127485761274761222c565b5b6127548482850161240a565b600083015250602082015167ffffffffffffffff8111156127785761277761222c565b5b61278484828501612697565b6020830152506040612798848285016120ae565b60408301525060606127ac848285016126c5565b60608301525060806127c0848285016126c5565b60808301525060a06127d484828501612464565b60a08301525060c06127e884828501612464565b60c08301525060e06127fc848285016126f1565b60e08301525092915050565b60006020828403121561281e5761281d611445565b5b600082015167ffffffffffffffff81111561283c5761283b61144a565b5b61284884828501612706565b91505092915050565b61285a816118ec565b82525050565b600060408201905061287560008301856120f0565b6128826020830184612851565b9392505050565b7f506f736974696f6e20707265636f6d70696c652063616c6c206661696c656400600082015250565b60006128bf601f8361200b565b91506128ca82612889565b602082019050919050565b600060208201905081810360008301526128ee816128b2565b9050919050565b6128fe81611966565b811461290957600080fd5b50565b60008151905061291b816128f5565b92915050565b600060a08284031215612937576129366121ac565b5b61294160a0612211565b905060006129518482850161290c565b6000830152506020612965848285016120ae565b60208301525060406129798482850161290c565b604083015250606061298d84828501612438565b60608301525060806129a184828501612490565b60808301525092915050565b600060a082840312156129c3576129c2611445565b5b60006129d184828501612921565b91505092915050565b7f53706f74507820707265636f6d70696c652063616c6c206661696c6564000000600082015250565b6000612a10601d8361200b565b9150612a1b826129da565b602082019050919050565b60006020820190508181036000830152612a3f81612a03565b9050919050565b6000604082019050612a5b60008301856120f0565b612a686020830184611411565b9392505050565b7f53706f7442616c616e636520707265636f6d70696c652063616c6c206661696c60008201527f6564000000000000000000000000000000000000000000000000000000000000602082015250565b6000612acb60228361200b565b9150612ad682612a6f565b604082019050919050565b60006020820190508181036000830152612afa81612abe565b9050919050565b600060608284031215612b1757612b166121ac565b5b612b216060612211565b90506000612b31848285016120ae565b6000830152506020612b45848285016120ae565b6020830152506040612b59848285016120ae565b60408301525092915050565b600060608284031215612b7b57612b7a611445565b5b6000612b8984828501612b01565b91505092915050565b7f53706f74496e666f20707265636f6d70696c652063616c6c206661696c656400600082015250565b6000612bc8601f8361200b565b9150612bd382612b92565b602082019050919050565b60006020820190508181036000830152612bf781612bbb565b9050919050565b600067ffffffffffffffff821115612c1957612c186121b1565b5b602082029050919050565b6000612c37612c3284612bfe565b612211565b90508060208402830185811115612c5157612c50611e7b565b5b835b81811015612c7a5780612c6688826120ae565b845260208401935050602081019050612c53565b5050509392505050565b600082601f830112612c9957612c98611e71565b5b6002612ca6848285612c24565b91505092915050565b600060608284031215612cc557612cc46121ac565b5b612ccf6040612211565b9050600082015167ffffffffffffffff811115612cef57612cee61222c565b5b612cfb8482850161240a565b6000830152506020612d0f84828501612c84565b60208301525092915050565b600060208284031215612d3157612d30611445565b5b600082015167ffffffffffffffff811115612d4f57612d4e61144a565b5b612d5b84828501612caf565b91505092915050565b7f546f6b656e537570706c7920707265636f6d70696c652063616c6c206661696c60008201527f6564000000000000000000000000000000000000000000000000000000000000602082015250565b6000612dc060228361200b565b9150612dcb82612d64565b604082019050919050565b60006020820190508181036000830152612def81612db3565b9050919050565b600067ffffffffffffffff821115612e1157612e106121b1565b5b602082029050602081019050919050565b600060408284031215612e3857612e376121ac565b5b612e426040612211565b90506000612e52848285016126c5565b6000830152506020612e66848285016120ae565b60208301525092915050565b6000612e85612e8084612df6565b612211565b90508083825260208201905060408402830185811115612ea857612ea7611e7b565b5b835b81811015612ed15780612ebd8882612e22565b845260208401935050604081019050612eaa565b5050509392505050565b600082601f830112612ef057612eef611e71565b5b8151612f00848260208601612e72565b91505092915050565b600060a08284031215612f1f57612f1e6121ac565b5b612f2960a0612211565b90506000612f39848285016120ae565b6000830152506020612f4d848285016120ae565b6020830152506040612f61848285016120ae565b6040830152506060612f75848285016120ae565b606083015250608082015167ffffffffffffffff811115612f9957612f9861222c565b5b612fa584828501612edb565b60808301525092915050565b600060208284031215612fc757612fc6611445565b5b600082015167ffffffffffffffff811115612fe557612fe461144a565b5b612ff184828501612f09565b91505092915050565b7f44656c65676174696f6e7320707265636f6d70696c652063616c6c206661696c60008201527f6564000000000000000000000000000000000000000000000000000000000000602082015250565b600061305660228361200b565b915061306182612ffa565b604082019050919050565b6000602082019050818103600083015261308581613049565b9050919050565b600067ffffffffffffffff8211156130a7576130a66121b1565b5b602082029050602081019050919050565b6000606082840312156130ce576130cd6121ac565b5b6130d86060612211565b905060006130e8848285016126c5565b60008301525060206130fc848285016120ae565b6020830152506040613110848285016120ae565b60408301525092915050565b600061312f61312a8461308c565b612211565b9050808382526020820190506060840283018581111561315257613151611e7b565b5b835b8181101561317b578061316788826130b8565b845260208401935050606081019050613154565b5050509392505050565b600082601f83011261319a57613199611e71565b5b81516131aa84826020860161311c565b91505092915050565b6000602082840312156131c9576131c8611445565b5b600082015167ffffffffffffffff8111156131e7576131e661144a565b5b6131f384828501613185565b91505092915050565b7f4f7261636c65507820707265636f6d70696c652063616c6c206661696c656400600082015250565b6000613232601f8361200b565b915061323d826131fc565b602082019050919050565b6000602082019050818103600083015261326181613225565b9050919050565b7f4d61726b507820707265636f6d70696c652063616c6c206661696c6564000000600082015250565b600061329e601d8361200b565b91506132a982613268565b602082019050919050565b600060208201905081810360008301526132cd81613291565b9050919050565b7f576974686472617761626c6520707265636f6d70696c652063616c6c2066616960008201527f6c65640000000000000000000000000000000000000000000000000000000000602082015250565b600061333060238361200b565b915061333b826132d4565b604082019050919050565b6000602082019050818103600083015261335f81613323565b9050919050565b60006020828403121561337c5761337b6121ac565b5b6133866020612211565b90506000613396848285016120ae565b60008301525092915050565b6000602082840312156133b8576133b7611445565b5b60006133c684828501613366565b91505092915050565b7f4e487b7100000000000000000000000000000000000000000000000000000000600052601160045260246000fd5b6000819050919050565b6000613413826133fe565b91507fffffffffffffffffffffffffffffffffffffffffffffffffffffffffffffffff8203613445576134446133cf565b5b600182019050919050565b600082825260208201905092915050565b82818337600083830152505050565b600061347c8385613450565b9350613489838584613461565b61349283611611565b840190509392505050565b600060208201905081810360008301526134b8818486613470565b90509392505050565b60006040820190506134d660008301856120f0565b6134e360208301846120f0565b9392505050565b7f5661756c7445717569747920707265636f6d70696c652063616c6c206661696c60008201527f6564000000000000000000000000000000000000000000000000000000000000602082015250565b600061354660228361200b565b9150613551826134ea565b604082019050919050565b6000602082019050818103600083015261357581613539565b9050919050565b600060408284031215613592576135916121ac565b5b61359c6040612211565b905060006135ac848285016120ae565b60008301525060206135c0848285016120ae565b60208301525092915050565b6000604082840312156135e2576135e1611445565b5b60006135f08482850161357c565b9150509291505056fea26469706673582212208eeea2919ff866b76d78a5f50be7542bf1cbe4cc0e2bd3f34acf43c25247b27d64736f6c634300080d0033","linkReferences":{}},"methodIdentifiers":{"delegations(address)":"bffe3486","delegatorSummary(address)":"37f980a5","l1BlockNumber()":"298c9005","markPx(uint32)":"c8eec8c6","oraclePx(uint32)":"c0f0f5ef","perpAssetInfo(uint32)":"4162cd32","position(address,uint16)":"89cf7c89","sendAction(bytes)":"df42f68f","spotBalance(address,uint64)":"a69610d1","spotInfo(uint32)":"b6dff0b5","spotPx(uint32)":"90702759","tokenInfo(uint32)":"68fb1109","tokenSupply(uint32)":"be06f7ac","userVaultEquity(address,address)":"ee1b5af1","withdrawable(address)":"ce513b6f"},"id":2}